:020000040800F2
:1000000058070020AD010008312000082920000811
:100010002D200008C5150008252400080000000058
:10002000000000000000000000000000792200082D
:10003000C915000800000000752200087D22000894
:10004000C7010008C7010008C7010008C701000870
:10005000C7010008C7010008C7010008C701000860
:10006000C7010008CD1500086D160008C70100087B
:10007000C7010008C7010008C7010008C701000840
:10008000C7010008C7010008C7010008C701000830
:10009000C7010008C7010008C7010008C701000820
:1000A000C7010008C7010008C7010008C701000810
:1000B00085220008C7010008C7010008C701000821
:1000C000C7010008C7010008C7010008C7010008F0
:1000D000C701000891230008C7010008C7010008F4
:1000E000C7010008C7010008C701000800F002F8B6
:1000F00000F04DF80AA090E8000C82448344AAF175
:100100000107DA4501D100F042F8AFF2090EBAE872
:100110000F0013F0010F18BFFB1A43F0010318473B
:100120000041000020410000103A24BF78C878C187
:10013000FAD8520724BF30C830C144BF04680C60ED
:10014000704700000023002400250026103A28BF35
:1001500078C1FBD8520728BF30C148BF0B60704739
:10016000662903F08187002070471FB500F0B6FBB9
:1001700004000020002102F0EDFF401C6060002020
:10018000002102F0D1FFE0601FBD10B510BD00F0EE
:10019000D1FC1146FFF7E9FF02F046F900F074FFC9
:1001A00003B4FFF7F2FF03BC01F0F6F909488047FA
:1001B00009480047FEE7FEE7FEE7FEE7FEE7FEE749
:1001C000FEE7FEE7FEE7FEE704480549054A064B61
:1001D0007047000081220008ED000008580100204F
:1001E0005807002058030020580300200FB41CB506
:1001F000074B06AA7B4469460090059800F0CBFAAD
:100200000020694600F0DAFA1CBC5DF814FB00001F
:10021000C50500002DE9F0410E460446002020628D
:100220002046E168884730B3252805D0D4E901216C
:100230009047206A401CF2E7E16820460027884783
:10024000050018D0A5F14100192802D820354FF437
:1002500000673246294620462760FFF781FF40B1FC
:10026000012804D0F61D26F007060836D8E7361D0B
:10027000D6E72846DAE7206ABDE8F081032A40F293
:10028000308010F0030C00F0158011F8013BBCF138
:10029000020F624498BF11F801CB00F8013B38BF50
:1002A00011F8013BA2F1040298BF00F801CB38BF5E
:1002B00000F8013B11F0030300F0DE82083AC0F0C1
:1002C000088051F8043B083A51F804CBA0E8081024
:1002D000F5E7121D5CBF51F8043B40F8043BAFF357
:1002E0000080D20724BF11F8013B11F801CB48BFB1
:1002F00011F8012B24BF00F8013B00F801CB48BFE7
:1003000000F8012B70474FF0000200B513469446E9
:100310009646203922BFA0E80C50A0E80C50B1F15D
:100320002001BFF4F7AF090728BFA0E80C5048BF71
:100330000CC05DF804EB890028BF40F8042B08BF0F
:10034000704748BF20F8022B11F0804F18BF00F80B
:10035000012B704770477047704710B500F0C2FA24
:10036000006810BD10B5044600F0BCFA046010BD72
:100370002DE9FF4F0C461E464FF0FF378BB0D2E9F8
:100380000001DDF860800A908A46C1F30A5505B97C
:100390003D46002108464FF00000BAF1000F00F47E
:1003A000400005DA00EB80004FF4400101EA500004
:1003B0004FEA9059B9F1010F00DDB9460A9850EAA9
:1003C0004A000ED044F61050A5F2FF3545432F14D5
:1003D000B8F1000F1ED07542291E1EDDC9F10002C2
:1003E0001CE0B8F1010F4FF0000001D0302103E014
:1003F000F24305E02154401CB042FBDB30460022B2
:10040000002121540B99C1F80880C1E900200FB0E8
:10041000BDE8F08FBD1B6D1CDEE74A4600DA69427D
:1004200006A800F011FB06AB93E8070003AB83E8D6
:10043000070050460A9902F02AF98DE80700A0F556
:1004400000501F3800900398002D0ADD42F21F0172
:100450004A460844002303A90390684602F0D6FBED
:1004600009E0A0F500504A461F38002303A9039075
:10047000684602F0F5FB8DE807000004000C03D08D
:100480004FF0FF30410800E01046B8F1000F03D0F4
:100490000022009215461EE0751E05D400F026FAD3
:1004A000303262556D1EF9D5B3460122084302D0A1
:1004B00000227F1C04E02078302801D100227F1E1A
:1004C000002A099784D01DE0112D07DA00F00EFAFA
:1004D000303262556D1C50EA0102F5D1084302D05A
:1004E0000098C8B10EE00021681E05E0235C625C44
:1004F00063542254401E491C8142F7DBAB46A81BC3
:10050000401E0990002004F80B000B98099AC0F8CF
:100510000880C0E9002B7AE711264FF0000857E762
:100520002DE9F04F88460446D21D22F0070191B014
:10053000D1E90001CDE90A0102F0DEFC02460B9888
:10054000C00F01D02D2007E02068810701D52B20A6
:1005500002E0202101EAC000032A099001D0072A05
:1005600005DB03464146204600F00EFA0BE12078F9
:10057000800601D5E06900E00620B8F1650F8146EC
:1005800006D0B8F1660F18D0B8F1670F70D131E01E
:100590000020B9F1110F009001DB112301E009F1F6
:1005A00001030AAA01A90CA8FFF7E2FEDDE90C701D
:1005B000002609F10105834647E001204B460090E3
:1005C0004FF000470AAA01A90CA8FFF7D1FEDDE908
:1005D0000DB00C995D46002610B909F101000D1807
:1005E000B9EB050003D4C0F1FF3609F10105A5EB15
:1005F00009002BE0B9F1010F01DA4FF001090020E9
:10060000B9F1110F0090484601DD112300E00346C7
:100610000AAA01A90CA8FFF7ABFEDDE90C704D4654
:1006200000268346207800070AD4AB4500DA5D46F1
:1006300001A8012D04DD411911F8011C302907D052
:100640004F4502DA17F1040F04DA012082460FE069
:100650006D1EEEE7002F02DCED1B3E4403E0781C2C
:10066000A84200DD7D1CB81B00F1010A4FF00047D5
:100670002078000703D4AA4501DB4FF0FF3A0021A0
:10068000B7F1004F0DF143088DF8431024D002203C
:100690002B23002F01DA7F422D230A21021EA0F115
:1006A000010000DC5FB197FBF1FC97FBF1F201FB6D
:1006B0001C7C17460CF1300C08F801CDEEE7A8F1D0
:1006C000010003702188090501D5452100E065215D
:1006D000A0F1010800F8011C09980FA9A1EB080777
:1006E000FF1D00B10120411901EBEA70A1693844F6
:1006F000081A401EA0612078C00602D42046AFF33D
:100700000080099828B1D4E901219047206A401C53
:1007100020622078C00622D52046AFF300801EE07C
:10072000002E04DBB34502DD01A8805D00E030202F
:10073000D4E901219047206A401C2062761CAAF16E
:1007400001005FEA000A0AD100F0C8F8C068016839
:10075000405CD4E901219047206A401C2062281E99
:10076000A5F10105DCDC07E0D4E9012118F8010B53
:100770009047206A401C2062381EA7F10107F3DC75
:100780002046AFF30080032011B041E601694A1C06
:1007900002610878704700B58FB0CDE901310021C2
:1007A000059105497944CDE9031011466846FFF7E4
:1007B00031FD0FB000BD0000E5FFFFFF0A6802F841
:1007C000010B0A60704700000FB40B0010B54FF02A
:1007D00000048AB00FA900910E99CC60234C7C4490
:1007E000234A7A44CDE9064200D004236FF0004248
:1007F000CDE901321F4A7A446B4608920246002036
:1008000003F094FC0AB010BC5DF814FBF0B5074689
:100810004FF0FF301E4615460C463B4685B06A46F3
:100820000091CDE9010131460020049004A8FFF7B2
:10083000CBFF04990346601825B109B1024600E0D8
:1008400022462A6000290ED0002B02DD0099814249
:1008500009D03B466A463146001B0094CDE90104AD
:1008600004A8FFF7B1FF05B0F0BD000027020000AB
:10087000410200007D01000010B5203AC0F00B805D
:10088000B1E81850A0E81850B1E81850A0E8185086
:10089000203ABFF4F5AF5FEA027C24BFB1E81850FC
:1008A000A0E8185044BF18C918C0BDE810405FEA5E
:1008B000827C24BF51F8043B40F8043B08BF7047DA
:1008C000D20728BF31F8023B48BF11F8012B28BFDF
:1008D00020F8023B48BF00F8012B704700487047E2
:1008E00038000020004870471800002030B5B0F1F3
:1008F0000A0271F100034FEA900E4EEA817EB0EBDE
:100900000E0061EB91014FEA101E4EEA017E10EBE2
:100910000E0041EB11114FEA102E4EEA016E10EB62
:100920000E0041EB11214FEA104E4EEA014E10EB42
:100930000E0041EB1141401841F100014FEAD00097
:1009400040EA41704FEAD1014FEA810444EA9074D1
:1009500010EB800544EB01046D1944EB0404521BB9
:10096000A3414FF0000348BF0A3200D530BD401C00
:1009700041F1000130BD10B5044600F001F90068F6
:10098000005D00F0010010BD2DE9F0411F46044656
:1009900003260168072A01F4006004DB08B116A5EC
:1009A00005E016A503E008B115A500E015A521F0A6
:1009B00010002060A069C01EA0610FB1401EA061A0
:1009C0002046AFF300804FB1D4E90121384690476B
:1009D000206A401C2062C01C206206E0206AFAE700
:1009E000D4E9012115F8010B9047761EF8D2204674
:1009F000AFF30080BDE8F0814E414E006E616E00A5
:100A0000494E4600696E6600426842B1016811F8BD
:100A1000013B23B1521EC0E9001218467047012164
:100A2000C160881E704742685AB1C368016843B903
:100A300083688B4205D0491E521CC0E90012002079
:100A400070474FF0FF3070472DE9F047814616465A
:100A50008AB0354878440DC88DE80D003248784496
:100A6000801C03AC0DC884E80D0041F69B3008449F
:100A7000372190FBF1F290FBF1F5A5F1800501FB28
:100A800012041B3C02D56442012000E00020DFF884
:100A900098A080460027FA44AAF1BE0A0EE0E007BB
:100AA0000AD03246684607EB470101230AEB810171
:100AB00002F0D6F88DE8070064107F1C002CEED100
:100AC000194F7F44AE3F19E0E80715D007EB04103B
:100AD0000DF1180A90E80E008AE80E00C068F04296
:100AE00001D1981908903246012306A903A802F003
:100AF000B7F803AB83E807006D10641C002DE3D149
:100B00004FF0010332466946B8F1000F03A802D046
:100B100002F07CF801E002F0A3F8C9E90001C9F88D
:100B200008200AB0BDE8F0878C3700000048704705
:100B3000180000207546FFF7F9FFAE46050069462C
:100B4000534620F00700854618B020B5FFF73CFB60
:100B5000BDE820404FF000064FF000074FF00008BE
:100B60004FF0000BAC46ACE8C009ACE8C009ACE8FB
:100B7000C009ACE8C00921F007018D4670470000AC
:100B800010B5FFF7ABFE001D10BD00BFC92500006A
:100B90002DE9FF4F06468BB00878FF2806D0491C88
:100BA0002D2805D000244FF0000908E000200CE0BB
:100BB0000124F8E709EB8903491C00EB4309087895
:100BC000FF28F7D114B1C9F1000081461078002543
:100BD0002C46AA4629462D2801D02B2804D1521C88
:100BE0002D2813D0002082468B461078FF280FD086
:100BF0004FF0000C0A21521CA5FB017804FB018177
:100C000005FB0C11C5194BEB0104EEE70120EAE7E7
:100C1000002108464FF00000BAF1000F02D000EBAF
:100C200080004008C0F38157012F01DD4FF0FF37EE
:100C30000E9955EA040009EB01080BD04FF00209A8
:100C400018F5FA7F16DA4FEACA70002F706008DDD7
:100C5000012007E04FEACA70C6E900B00FB0BDE856
:100C6000F08F00203060FFF73DFEC0F800901821A3
:100C7000084616E0B8F5FA7F18DD002F02DAF748CB
:100C8000784401E0F6487844D0E90010C6E9001045
:100C900040EACA707060FFF725FEC0F8009014218A
:100CA00008460FB0BDE8F04F03F0DBB9002108465D
:100CB0004FF00000B8F10001099002DAC7F100021C
:100CC00000E03A4601DAC8F1000106A8FFF7BCFED1
:100CD00006AB93E8070003AB83E8070044F23E004D
:100CE0005BEA04010090584604D144F21E012C46F0
:100CF0005D460091210C0904014306D100992404AA
:100D000044EA15442D041039009104F07F41014359
:100D100006D10099240244EA15642D020839009195
:100D200004F07041014306D10099240144EA15748E
:100D30002D01091F009104F04041014306D10099A3
:100D4000A40044EA9574AD00891E009104F00041AE
:100D5000084304D100986D196441401E00904FF083
:100D600001033A466846B8F1000FCDE9014503A9F1
:100D700002DD01F08AFF01E001F05DFFBAF1000F32
:100D800004460D4601D084F00044002108464FF08F
:100D90000000099940F2FF77484010F00C0F07D18E
:100DA00024F00040284303D0C4F30A50B84212D1C3
:100DB000FFF798FDC0F80090C4F30A50B8420AD17A
:100DC000A8487844D0E90010C6E9001004F00041BA
:100DD0000843706042E7C6E900543FE72DE9FF4F42
:100DE0001F464FF0000A4FF0FF38454691B0D7E953
:100DF0000146CDF83CA0FFF771FDC0680168405C7A
:100E00001090B96912986D1C8847396A81468847E5
:100E10000028F6D1B9F1FF3F0AD0002E24F4D064A7
:100E200011DDB9F12B0F08D0B9F12D0F0BD102E074
:100E3000404615B013E744F48064B96912986D1CFC
:100E40008847761E8146600504A901D52D2000E063
:100E50002B20002E01F1010B0DF130088DF8100050
:100E60003FDDB9F1690F08D0B9F1490F05D0B9F1EB
:100E70006E0F02D0B9F14E0F1CD13B4601A8009570
:100E800080E85002DDE912126FF0020003F052F91F
:100E9000C11CCED10EE0B96912986D1C88478146FD
:100EA0001398761E44F4007405600F98401C002EC1
:100EB0000F9016DDB9F1300FEDD0B9F1780F02D0F7
:100EC000B9F1580F0DD10F9801280AD13B46CDE951
:100ED0000054DDE91212001F029603F029F9C11C2B
:100EE000A7D1109989453ED144F0800406E01399BA
:100EF000681CAAF1010A44F400740860B9696D1C09
:100F00001298761E884730288146F0D02BE0109941
:100F1000894505D1200603D4761E44F0800418E0EC
:100F2000484602F07EF808B3761E0DF12302934581
:100F3000A9F1300044F4007406D20BF8010B20062E
:100F400007D5AAF1010003E0200602D40AF101004E
:100F50008246A00502D51399681C0860B9691298E9
:100F60006D1C88478146002ED1DC53E0002E51DDF8
:100F7000B9F1650F02D0B9F1450F4BD1A00549D5A4
:100F8000B9696D1C1298761E24F440748847002EAF
:100F900081460CDD2B2804D0B9F12D0F07D144F484
:100FA0008074B96912986D1C8847761E8146E005E9
:100FB00001D52D2100E02B2108F8011BCDF8008080
:100FC00021E0761E0DF13901884544F400740CD2FD
:100FD000A9F1300010F0FF0088F8000002D100995C
:100FE000884509D908F1010806E0E00501D51E4849
:100FF00001E042F20F708246B96912986D1C884771
:10100000814613980560002E04DD484602F009F879
:101010000028D6D1F96912988847FF2053468BF8EB
:10102000000088F8000000200A900B9004AA0CA988
:101030000AA8FFF7ADFDA00502D46FF00100F8E6A5
:1010400014F0240F12D0E0071CD13868DDE90A1231
:10105000031D3B600068C0E9001213E0C4350000C6
:10106000B63500007A340000F1D8FFFF0AA96846BF
:1010700001F066FFE00705D13868009A011D39606C
:10108000006802602846D4E610B50446AFF300803D
:101090002046BDE81040FFF783B800004FF0013C48
:1010A00050F8042B51F8043B9A4221D1A2EB0C03D7
:1010B000934313EACC1317D150F8042B51F8043B97
:1010C0009A4215D1A2EB0C03934313EACC130BD134
:1010D00050F8042B51F8043B9A4209D1A2EB0C03BF
:1010E000934313EACC13DBD04FF00000704700BFEE
:1010F000D01A01BAB1FA81F101F0180122FA01F017
:10110000CB40DBB2C0B2C01AC1F120012CFA01F30E
:10111000D11A914311EAC311E6D17047B2F120030D
:101120000AD5C2F1200301FA02F120FA03F341EAE1
:10113000030100FA02F0704700FA03F14FF00000DB
:10114000704700002DE9FF4F1F464FF03C0987B064
:101150004FF00042DDE9141001F10108DDF858A05C
:1011600002EA40500390002005908346054604465D
:101170000490B969461E08988847AAF1010A0290AE
:10118000BAF1000F3BDD02982E2815D0102100F097
:1011900009FA00282EDB4FF0010B0599014317D007
:1011A000B9F1000F0BDB4A46C117FFF7B7FF054344
:1011B0000C43A9F1040905E0012004900BE008B1FB
:1011C00045F0010501200590049820B9361D02E084
:1011D000049800B1361FB969089808F101088847DA
:1011E000BBF1000FAAF1010A0290C9D00999C1F818
:1011F0000080C5E70298702808D0502806D0F96909
:1012000008988847BBF1000F14D04FE000200290EF
:101210000120BBF1000F049009D0B969089808F1CA
:1012200001088847AAF10109B9F1000F07DCF96943
:10123000089888476FF001000BB0BDE8F08F2B28AD
:1012400004D02D280CD14FF0FF300490B9690898D4
:1012500008F101088847A9F10109B9F1000FE6DD9D
:10126000411CE4D00A2100F09DF90028DFDB02993F
:1012700008F1010801EB810100EB41000290B9691E
:10128000089888470A2100F08DF9099AA9F1010907
:10129000B9F1000FC2F8008001DD0028E7DAF96932
:1012A000089888470499029800FB016655EA0400F3
:1012B00004D004F04041090002D006E0039898E011
:1012C000A40044EA9574AD00B61E04F00041080085
:1012D00002D16D196441761E159810F0240F03D0C9
:1012E0004FF00B095C4803E04FF028096FF07D00D8
:1012F0008246564507DAAAEB06018944B9F1410F47
:1013000001DD4FF0410901200021A9F10102FFF7A1
:1013100005FF024628400B462140084301D0012129
:1013200000E00021501E029143F1FF31284021408E
:10133000084301D0012000E000200299834651EAD1
:101340000B014FD0002108464FF00000039900F434
:10135000400039B100EB80004FF4400100EBD07049
:1013600001EA60008015012802DD4FF0FF3000E047
:1013700013D0401C36D0029860B3BBF1000F0CD1E3
:101380004A4601200021FFF7C9FE284021400843BA
:1013900001D0012000E00020E0B101204A460021F8
:1013A000FFF7BCFE034640190A4661412D1A8C41E5
:1013B00011D3B9F1400F09DD159810F0240F02D0B8
:1013C000AAF1340603E0AAF1170600E0761C002516
:1013D0004FF0004406E05B1E42F1FF3220EA0305B5
:1013E00021EA0204CAF10100B04206DA1B4903985F
:1013F00008430190002000900EE0039AC4F3D3212B
:10140000E80A0A43164940EA44500A433146CDE906
:101410000002684601F0FAFD159810F0240F0BD079
:101420001598C00715D13868DDE90012031D3B602F
:101430000068C0E900120CE002A8694601F080FDD6
:101440001598C00705D13868029A011D39600068F7
:1014500002604046F0E6000002FCFFFF0000F07F63
:101460000000F03F2DE9FF4F92461D4685B04FF03A
:101470000041DDE9124BDDE914727F1E01EA4B5099
:10148000414940F0FF4940EA0108002122F02000D4
:101490004928049102D04E2828D04CE03BA00126D8
:1014A00007C88DE80700A9690698641C88477F1E55
:1014B000014606D41DF8060018B121F02001814232
:1014C0000BD0E96906988847032E34D0082E32D015
:1014D0006FF0010009B0BDE8F08F761C032E01D03B
:1014E000082EE0D1601CCAF80000DCE7A969069864
:1014F000641C88477F1E2AD420F02000412826D172
:10150000A9690698641C88477F1E20D420F020001B
:101510004E281CD1A9690698641C88477F1E48F490
:10152000002849F48009CAF8004001D4282806D0D0
:10153000E969069888475FEACB7012D022E0A96972
:101540000698641C88477F1E01D4002803DAE969E5
:1015500006988847BCE72928F1D1641CCAF80040E6
:10156000E9E71BF0240F07D028680499031D2B60BE
:101570000068C0E9001805E02868021D2A600068BC
:10158000C0F800902046A5E70000F07F494E46498C
:101590004E4954590000000001491820ABBEFEE737
:1015A000260002003A2800D2303820F02002412ADA
:1015B00001D3A2F13700884201D34FF0FF307047CA
:1015C00070470000FEE7000070470000B0B540F231
:1015D0001440C4F20100016800F57B7441F0080179
:1015E00001602046082100F09FF9054620461021A1
:1015F00000F09AF940EA450000F0030140F278005B
:10160000C2F20000DFE801F002141A2C8378026AAB
:10161000012B17D10132B2F5E76F0262817017DA40
:1016200012F5E76FC8BFB0BD4FF0FF3111E000BF4A
:101630008378026A032BEDD004E000BF8378026A4E
:10164000002BE7D0013AB2F5E76F02628170E7DB69
:101650000121C369002219440262C161B0BD00BF0B
:101660008378026A022BD5D0ECE70000B0B540F2D7
:101670001440C4F20100016800F57B7441F01001D0
:1016800001602046082100F04FF905462046102150
:1016900000F04AF940EA450000F0030140F278000A
:1016A000C2F20000DFE801F002141A2C8378026A0B
:1016B000012B17D10132B2F5E76F0262817017DAA0
:1016C00012F5E76FC8BFB0BD4FF0FF3111E000BFAA
:1016D0008378026A032BEDD004E000BF8378026AAE
:1016E000002BE7D0013AB2F5E76F02628170E7DBC9
:1016F0000121C369002219440262C161B0BD00BF6B
:101700008378026A022BD5D0ECE700002DE9F04F78
:1017100082B00E68002E00F0038141F20042C4F254
:101720000102042340F2004E904208BF03234FF60B
:10173000FF7CC4F2010E009300240123C1F2100CBF
:101740004FF0000A4FF0000949E000BF012704F004
:101750000C030F229A402BEA020207FA03F34FEA26
:101760009A051A4346F82520D1F804B040F20C45FA
:101770005FEACB22DEF8082054BF22EA080242EAE0
:101780000802C4F20105CEF808202A685FEA8B231C
:1017900054BF22EA080242EA08022A605FEA8B3359
:1017A000DEF8042054BF22EA080242EA08025FEA97
:1017B000CB33CEF80420DEF800204FF0010354BFF5
:1017C00022EA080242EA0802CEF800200E680AF176
:1017D000010A36FA0AF204F1040400F0A18003FAC7
:1017E0000AF816EA080FF1D04E68664512DC122E90
:1017F00056D8DFE806F0350B454955555555555532
:10180000555555555555554D510000BFD1F80C90C3
:1018100046E000BF4FF6FF72C1F2210296420FDC94
:101820000022C1F2110296421AD00022C1F2120225
:10183000964215D00022C1F22102964210D02FE02C
:101840000022C1F2220296420AD00022C1F23102E5
:10185000964205D00022C1F23202964220D100BF4A
:101860008A684AB1012A14BFC0F81480C0F81080F9
:101870004FF0080914E000BF4FF0040910E000BF6A
:10188000CA6802F108090BE04FF0000908E000BF48
:10189000CA6802F1040903E0CA6802F10C0900BF3A
:1018A00022460646BAF1080F24BF203A04363768AC
:1018B0000F25954027EA050509FA02F22A4332600E
:1018C000CA79D2067FF582AF41F21803C4F202034F
:1018D0001A68AEF57E7642F001021A601A6802F0CC
:1018E00001020192019A2AF0030256F802B040F672
:1018F0000002C4F20102904210D040F60042C4F24D
:10190000010290423FF422AF41F20002C4F2010210
:10191000009F904208BF022719E700BF002716E783
:1019200002B0BDE8F08F00008068084018BF0120B9
:101930007047000040F25410C2F200000068704787
:1019400040F2080040F25411C2F20000C2F200015D
:1019500000780A68104408607047000080B542F2C1
:101960000000C4F20200016841F010010160032090
:1019700000F07AF80F2000F005F800F027F80020BA
:1019800080BD000070B540F20806C2F2000640F2C9
:1019900010013278C2F200014FF47A730968B3FB88
:1019A000F2F20446B1FBF2F1084600F027FB0F2CDF
:1019B0004FF0010508D838B94FF0FF30214600221A
:1019C000002500F025F87460284670BD82B041F211
:1019D0001800C4F202000168022241F00101016016
:1019E000016801F0010101910199416841F08051C4
:1019F0004160406800F08050009000980420C4F2DC
:101A00000100016862F31A61016002B070470000D2
:101A100010B54EF60C5CCEF2000CDCF80030C3F3CF
:101A2000022E8EF00704042C28BF0424BEF1030309
:101A30004FF0FF3E0EFA04F438BF0023A143994053
:101A40000EFA03F39A43114300F00F0200F16043D2
:101A50000901043A03F564436244002848BF02F1D7
:101A60000C03197010BD00004EF60C51CEF20001AF
:101A70000A684FF6FF031A4060F30A2242F08060C2
:101A800040F0FD70086070472DE9F04381B00028F8
:101A900000F0858042F20008C4F202080446D8F83B
:101AA00000000D4600F0070088420CD2D8F8000074
:101AB00020F007002843C8F80000D8F8000000F024
:101AC0000700A8426BD1206841F204098107C4F2E3
:101AD000020917D5410705D5D9F8001041F4E06196
:101AE000C9F80010010705D5D9F8001041F460517C
:101AF000C9F80010D9F80010A26821F0F0011143D4
:101B0000C9F80010C00741D1D8F8000000F0070064
:101B1000A8420CD9D8F8000020F007002843C8F8E4
:101B20000000D8F8000000F00700A84237D1206874
:101B3000410707D5D9F80010E26821F4E0611143AC
:101B4000C9F80010000708D5D9F80000216920F471
:101B5000605040EAC100C9F80000D9F8002002F046
:101B60000C00082841F20020C0F27A0050D144F263
:101B70000E23C2F38341C0F60003595CD2033BD469
:101B800040F60010C0F23D00484341E06068022882
:101B90000AD001282AD159F8041C890308D401204D
:101BA00001B0BDE8F08300BF59F8041C8901F6D5E7
:101BB000D9F8001021F003010843C9F80000FFF72D
:101BC000B9FE064641F28837D9F80000616800F096
:101BD0000C00B0EB810F97D0FFF7ACFE801BB84232
:101BE000F2D9032001B0BDE8F08300BF59F8041C0E
:101BF0008907D4D5DCE700BFD9F8002044F20C23D4
:101C0000C2F34042C0F600039A5C4843B0FBF2F0D6
:101C1000D9F8001044F2FC12C1F30311C0F600021F
:101C2000515C40F2100220FA01F140F20C00C2F2C5
:101C300000000068C2F200021160FFF7A3FE00205E
:101C400001B0BDE8F08300002DE9F04182B000282A
:101C500068D00446007841F20006C007C4F20206CC
:101C600025D0706800F00C0004281BD0706800F0CC
:101C70000C00082802D17068C00313D460680028E3
:101C800000F06881B0F5A02F00F07C81B0F5803FB6
:101C900000F07C81306820F480303060306820F4BF
:101CA000802076E13068800301D56068D0B3207869
:101CB000800718D5706810F00C0F07D0706800F01E
:101CC0000C0008286ED17068C0036BD430688007A0
:101CD00002D52069012825D13068616920F0F8001B
:101CE00040EAC1003060207800071FD42078400708
:101CF00032D4E56995B1706800F00C00082840F016
:101D00008F80012D0ED07068216A00F480328A42E3
:101D100008D1616A00F47010884203D1002002B03B
:101D2000BDE8F081012002B0BDE8F081A069002883
:101D300062D00020C4F242200121C0F88014FFF7D5
:101D4000F9FD0546706A800700F18C80FFF7F2FD0F
:101D5000401B0228F6D92AE1F06910F0805808D11A
:101D6000F06940F08050F061F06900F08050009020
:101D7000009847F20007C4F200073868C00529D46C
:101D8000386840F480703860FFF7D4FD054600BF26
:101D90003868C0051ED4FFF7CDFD401B6428F7D975
:101DA00005E100BF2069002840F20000C4F2422093
:101DB00000F0828001210160FFF7BCFD054600BFF5
:101DC000306880073FF588AFFFF7B4FD401B02285D
:101DD000F6D9ECE0E068002800F08080052800F0EB
:101DE0009780012800F09880306A20F0010030626E
:101DF000306A20F0040092E00020C4F2422000216A
:101E0000C0F88014FFF796FD054600BF706A800792
:101E10007FF56CAFFFF78EFD401B0228F6D9C6E0B8
:101E20000027C4F2422700203866FFF783FD022D09
:101E300005460BD13068800140F1BE80FFF77AFD86
:101E4000401B02284FF00300F4D968E73068800196
:101E50007FF564AFFFF76EFD401B02284FF00300D3
:101E6000F4D95CE740F21000C2F20000006844F6CA
:101E7000D351C1F26201A0FB0101480A019000BFE9
:101E800000BF0198411E002801913FF42FAF00BF11
:101E90000198411E002801913FF428AF00BF01982E
:101EA000411E002801913FF421AF00BF0198411E5F
:101EB00000280191E4D119E700210160FFF73AFD04
:101EC000054600BF306880077FF50DAFFFF732FD94
:101ED000401B02284FF00300F4D920E7306A20F0BD
:101EE00001003062306A20F004003062FFF722FD0A
:101EF000054641F2883700BF306A800720D5FFF7DA
:101F000019FD401BB8424FF00300F5D907E700BFA9
:101F1000306A40F004003062306A40F00100306204
:101F2000FFF708FD054641F2883700BF306A800799
:101F300006D4FFF7FFFC401BB842F7D937E000BFDB
:101F4000B8F1000F7FF4D5AEF06920F08050F06159
:101F5000CFE600BF306820F480303060306820F475
:101F600080203060FFF7E6FC054600BF3068800344
:101F70007FF59DAEFFF7DEFC401B64284FF00300A9
:101F8000F4D9CCE6306840F480203060306840F40A
:101F900080303060FFF7CEFC054600BF306880031C
:101FA0003FF585AEFFF7C6FC401B6428F6D9032039
:101FB00002B0BDE8F08100BF206AB0F5803F05D1D6
:101FC0007168A26821F40031114371607168626A1E
:101FD00021F4741111430843706001203866FFF743
:101FE000A9FC0446306880013FF598AEFFF7A2FCDB
:101FF000001B02284FF00300F4D990E6411E002098
:10200000B0EB116F1CBF012070474EF21002CEF2F0
:10201000000251604EF62351CEF20001F0230B7006
:102020000721906011607047FEE70000FEE70000A6
:10203000FEE700002DE9F04F89B040F278094EF636
:10204000AA1C45F68B464AF2A55744F29375C2F294
:1020500000094FF4C8784FF0000EC3F65F7CC3F65A
:10206000E776C3F6B857C4F28F05C9E9018EC9E90E
:1020700003C6C9E9057501F00DFD4FF63553C3F6EA
:10208000EB734FF0804204460D4601F0CFFBCDE9E3
:102090000710D9F8280045F68B410290D9F82C009A
:1020A000D9E90CB8019040F20000C2F20000D0E97A
:1020B00000A0C3F6E7710690504601F091FE01F0D2
:1020C000D7FD22462B46039401F0B0FB5A46434607
:1020D00001F088F80E4644F2937107465046C4F268
:1020E0008F0101F07DFE01F0C3FDD9E90E23C84642
:1020F00001F09CFB3A46334601F074F8DDE9013209
:10210000CDE904102046294601F0C4FC41F2B44355
:10211000C3F6B7734FF0204201F088FB04465046E7
:102120000F4601F0A5FD02460B462046394601F058
:1021300015F9DDF8189004460E464FF07E504946DA
:1021400001F01AFF01F094FD07464246D8E910A8B5
:1021500048468B46914601F08BFD02460B462046D1
:10216000314601F063FB04460E4638465946524656
:10217000434601F05BFB2246334601F033F8044648
:1021800003980E46C9E90A05059A049BDDE9071084
:10219000C9F83020C9F83430C9E9104601F022F8F6
:1021A0002246334601F01EF80022002380460D46E9
:1021B00001F008FE60B940F60C42C4F2010210685A
:1021C00040F001001060106820F0020015E000BF30
:1021D000404629460022002301F0EDFD40F60C4266
:1021E000C4F201021168002821F001011160116898
:1021F00014BF21F0020041F0020010604046294661
:1022000001F042FA002848BF404201F06CFAD9F8C8
:102210000440064620460F4601F065FA02460B468A
:102220003046394601F0CEFD80B1D9F8084020464D
:1022300001F059FA02460B463046394601F0BBFD23
:1022400020B14046294601F01FFA044689F80140B2
:10225000E4B2204601F05EFA32463B4601F01AFC39
:10226000C9E90E0140F23440C4F20000046009B034
:10227000BDE8F08F7047000070470000FFF760BBBB
:10228000704700002DE9F04F81B01020C4F200002B
:10229000016840F2780A21F001010160C2F2000AEF
:1022A000DAE90706400001F01EFA044670000D4608
:1022B00001F019FA44F2505842F2FB19C5F25248A3
:1022C000C4F2090942464B4601F0B0FA4EF200034F
:1022D000C4F29C0300224FF0000B01F03FF80646C9
:1022E0000F462046294642464B4601F09FFA3246A9
:1022F0003B4600F077FF4BF218124AF2DC53C1F66E
:102300005322C4F24C0301F091FA044640F2F0006B
:102310000D46C2F20000CAE9124500F089FE2246CD
:102320002B46CAE91401FFF785FE9AF80000013038
:10233000C1B20A298AF8000024D1DAE912230AF18D
:10234000580412A120468AF800B0FDF74FFF9AF812
:102350005800B8B143F60001C4F2010104E000BF27
:10236000486014F8010F68B10A685206F8D40A6888
:1023700052065CBF0A685FEA4262F1D40A685206FC
:10238000F2D5EDE701B0BDE8F08F00BF25660A0089
:1023900070B543F60005C4F2010568680A282DD11E
:1023A00040F2F004C2F2000420463221FDF7ABFFF8
:1023B00040F27806C2F20006726A002A2EDD04F1AD
:1023C00032012046FDF75AFF207838B340F2F00181
:1023D000C2F2000104E000BF686011F8010FE8B12B
:1023E0002A685206F8D42A6852065CBF2A685FEA57
:1023F0004262F1D42A685206F2D5EDE740F2780144
:10240000C2F2000168684A6A531C4B6240F2F00154
:10241000C2F20001114481F8320070BD00207062E8
:1024200070BD0000FEE7000090B0FFF797FA06AC21
:10243000201D2421FDF767FF0220069001200A904D
:1024400010200B90002520460D95FFF7FDFB28B1CD
:10245000EFF3108072B600BFFEE700BF0F20CDE99A
:10246000010501A80021CDE903550595FFF70CFBF7
:1024700020B1EFF3108072B6FEE700BF4FF0000806
:1024800041F21807CDE90888C4F20207386841F222
:10249000000540F0100038603868C4F2010500F013
:1024A000100001900198386806AE40F020003860B6
:1024B0003868032400F02000019001983868314604
:1024C00040F004003860386800F004000190019882
:1024D000386840F008003860386800F00800019063
:1024E00001984FF46040069028460794FFF70EF9D4
:1024F00005F580603146CDE90644FFF707F940F65F
:10250000000549F6FF70C4F20105CDE9060428462E
:102510003146FFF7FBF84FF6FF70CDE9060440F6B1
:102520000044C4F2010420463146FFF7EFF80420CE
:10253000C4F20100016842F20C0341F0E06141F491
:1025400000410160396841F00D0139602968296056
:10255000696869602168216061686160396841F477
:1025600080413960696841F090016960696841F4AF
:102570008061696043F60C01C4F2010151F8042C3A
:1025800042F0450241F8042C0A681A430A600A68BE
:102590004F2342F020020A604EF20011CEF20001F9
:1025A0004A6842F020024A607A6842F001027A608A
:1025B0000C22C4F20002D36141F2873313629368A4
:1025C00043F001039360136843F0010313604FF07D
:1025D00080530B604FF080431E6846F001061E607A
:1025E0002B6843F010632B607B6843F002037B6031
:1025F00040F21843C4F200034FF4C877C3F81080C8
:102600005F611F6847F060071F609F6847F0010720
:102610009F60D2F8F43343F00103C2F8F4332A6820
:1026200042F408222A604FF60C42CFF6FF72A358FC
:1026300023F01803A350436823F470434360836876
:1026400023F00F038360D0F8FC3343F01803C0F885
:10265000FC334FF60840CFF6FF702B5843F01803B9
:102660002B50A85840F01800A850086840F4C060EB
:102670000860206840F011002060E06840F0010030
:10268000E060E06840F00200E06000BFFEE75FEA63
:10269000400C08BF91F0000F4FEA8C234FEAC12293
:1026A00043EA51514FEA1C5018BF00F5F0404FEA81
:1026B000300018BF41F000415FEA6C5C00F02980F7
:1026C000BCF1FF3F08BF40F080407047130C06BFCD
:1026D00012044FF0100C4FF0000C130E04BF120246
:1026E0000CF1080C130F04BF12010CF1040C930F32
:1026F00004BF92000CF1020CD30F04BF52000CF186
:10270000010C11464FF00002A0F11F00A0EB0C00DD
:10271000704711F0004F08BF704731F000413FF49F
:10272000D5AF0B0C06BF09044FF0100C4FF0000C96
:102730000B0E04BF09020CF1080C0B0F04BF0901BA
:102740000CF1040C8B0F04BF89000CF1020CCB0FB1
:1027500004BF49000CF1010CCCF1200322FA03F371
:1027600041EA030102FA0CF2A0EB0C0000F10100B7
:102770007047000023F07F4720F07F4C80EA030081
:1027800000F00040ACEB070303F57C5303F1FF03BB
:102790002DE9804909B44FEA144324EA03484FEA7B
:1027A000154B25EA0B4E0FF2042606EB13273E7855
:1027B00003FB0667C7F5000707FB06F64FEAD64698
:1027C00006F102064FEA543707FB066CCCF1005CB9
:1027D0004FEA1C472CEA074C0CFB06F507FB06F4F6
:1027E00004EB15464FEA961649085FEA320234BFF9
:1027F00000204FF000404FEAD13706FB07FC4FEABC
:102800001C4C0CFB0BF7D21B03FB0CF761EB070115
:102810000CFB0EF7B0EB074072EB17420CFB08F70E
:1028200034BFA2EB0742B2EB074261EB17414FEA1C
:102830000C444FEA910706FB07FC4FEA1C4C0CFBCB
:102840000BF7B0EBC74072EB573203FB0CF734BF0A
:10285000A2EBC742B2EBC74261EB57310CFB0EF75C
:10286000B0EBC70072EB57720CFB08F734BFA2EB5A
:10287000C702B2EBC70261EB57714FEA816141EACF
:1028800092114FEA826242EA90124FEA806004EBB2
:10289000CC04039F4FEAD13706FB07FC4FEA1C4CE0
:1028A0000CFB0BF7D21B03FB0CF761EB07010CFBD6
:1028B0000EF7B0EB074072EB17420CFB08F734BF82
:1028C000A2EB0742B2EB074261EB17414FEA8C558E
:1028D00004EB9C244FEA910706FB07FC4FEA1C4CD3
:1028E0000CFB0BF7B0EBC74072EB573203FB0CF756
:1028F00034BFA2EBC742B2EBC74261EB57310CFBCE
:102900000EF7B0EBC70072EB57720CFB08F734BF41
:10291000A2EBC702B2EBC70261EB57714FEA8161CC
:1029200041EA92114FEA826242EA90124FEA8060D5
:1029300015EB4C2544F100044FEAD13706FB07FCA8
:102940004FEA1C4C0CFB0BF7D21B03FB0CF761EBA3
:1029500007010CFB0EF7B0EB074072EB17420CFBC4
:1029600008F734BFA2EB0742B2EB074261EB174115
:102970004FEA813141EA92414FEA823242EA904283
:102980004FEA80304FEA0C7615EB1C1544F1000439
:1029900048EA03434EEA0B484FF0000EB2EB080C36
:1029A00071EB030724BF624639464EEB0E0E4FF023
:1029B000000B0018524149414BEB0B0BB2EB080CDA
:1029C00071EB03077BF1000B24BF624639464EEBE7
:1029D0000E0E4FF0000B0018524149414BEB0B0B10
:1029E000B2EB080C71EB03077BF1000B24BF6246CE
:1029F00039464EEB0E0E51EA020718BF46F00106AB
:102A000016EB0E7655F1000254F1000103D5BDE836
:102A10008901BDE80088BDE88901BDE80048B61914
:102A2000524141EB0101A3F10103704780807F7E99
:102A30007D7C7B7A79787776767574737271717034
:102A40006F6E6E6D6C6C6B6A6A69686867666665E6
:102A50006464636362616160605F5F5E5E5D5D5C74
:102A60005C5B5B5A5A5959585857575656555555E5
:102A70005454535352525251515050504F4F4F4E45
:102A80004E4D4D4D4C4C4C4B4B4B4A4A4A49494993
:102A900048484847474747464646454545444444D5
:102AA00044434343434242424241414110B546EA16
:102AB00006464FEA164646EA42564FEAD22242EA14
:102AC00041524FEAD121A3F57053A3F1010300F065
:102AD0002FF820F0004000F0004700F1020CBCF598
:102AE000006F01EB0050114640EA070000D210BD14
:102AF000BAF1000F0AD01CB503B44FF004004FF038
:102B000004014FF000000FBCBDE810404FF0000181
:102B1000BBF1010FB9BF04484FF0FF31034800215A
:102B200040EA070010BD00BFFFFFEF7F0000F07F0D
:102B30009C46002B30D477002BD04FEA37071CB5CA
:102B400003B44FF010004FF01001BAF1000F06D09F
:102B5000BCF1000FDCBF40F0080040F008014FF06E
:102B600000000FBCBDE810400BF1010BBBF1010FE1
:102B700008BF5FEA170722BF12F1010211F101013C
:102B80004FF0004143F1000300F0004043EA000031
:102B90007047F9D35708D0E746EA06464FEA16468B
:102BA00013F1400F1FDD13F1200FDFBF16430A465C
:102BB000002120335B42BED0C3F1200746EA06461F
:102BC0004FEA164602FA07F746EA070622FA03F228
:102BD000C3F1200701FA07F742EA070221FA03F1DD
:102BE0004FF00003A7E746EA020646EA06464FEA28
:102BF000164646EA0106BCBF46EA0646360C4FF0CA
:102C000000034FF000024FF0000194E72DE9804CE3
:102C100070B49A46934691E8380007C831EA400CF0
:102C200048BF34EA430C03D5FFF7A4FDFFF780FF4C
:102C3000F0BCBDE8008C2DE9804C70B49A469346F8
:102C400091E8380007C831EA400C48BF34EA430C29
:102C500003D5FFF78FFDFFF729FFF0BCBDE8008C1F
:102C60002DE9804C70B49A46934691E8380007C825
:102C700010F0804F08BF13F0804F03D100F01AF816
:102C8000FFF756FFF0BCBDE8008C2DE9804C70B416
:102C90009A46934691E8380007C810F0804F08BF65
:102CA00013F0804F03D100F005F8FFF7FFFEF0BCF2
:102CB000BDE8008C20F07F4723F07F4C80EA0300C2
:102CC00000F0004007EB0C03A3F57C53A3F1FE03D7
:102CD00092F0000F00F0B38095F0000F00F07780C5
:102CE0002DE901494FEA114021EA00484FEA144614
:102CF00024EA064700FB06FC08FB06F607FB08F87B
:102D000018EB06484CEB164C00FB07F718EB07488E
:102D10004CEB17404FEA124B22EA0B4E4FEA154696
:102D200025EA06470BFB06FC0EFB06F607FB0EFE2C
:102D30001EEB064E4CEB164C0BFB07F71EEB074E3B
:102D40004CEB174B18EB0B0840F1000018EB0E0B87
:102D500058EB000840F100008F1A4FF000014FF0CF
:102D600000063CBFC943661B14BFB5EB040C002131
:102D70003CBFC943F61B4FEA174427EA04454FEA14
:102D80001C472CEA074C04FB076205FB07F70CFB0A
:102D900005F616EB074642EB174204FB0CFC16EB5C
:102DA0000C4642EB1C421BEB060658EB020241416B
:102DB0004EEA8E0E46EA9E0601D5BDE80189B61997
:102DC000524141EB0101A3F10103BDE801894FEA42
:102DD000144524EA05464FEA114721EA074C05FB52
:102DE00007F406FB07F70CFB06F111EB074144EB78
:102DF000174405FB0CFC11EB0C4144EB1C444FEA5F
:102E0000124722EA074C05FB07F206FB07F70CFB0B
:102E100006F616EB074642EB174205FB0CFC16EBD9
:102E20000C4642EB1C456A1854F1000148BF70473C
:102E3000B619524141EB0101A3F10103704795F02E
:102E4000000F37D04FEA114221EA02464FEA1447F9
:102E500024EA074C02FB07F106FB07F70CFB06F41C
:102E600014EB074441EB174102FB0CFC14EB0C4440
:102E700041EB1C414FEA154725EA074C02FB07F5D9
:102E800006FB07F70CFB06F616EB074645EB174566
:102E900002FB0CFC16EB0C4645EB1C42121951F1DF
:102EA000000148BF7047B619524141EB0101A3F13F
:102EB000010370474FEA144524EA05464FEA1147DB
:102EC00021EA074C05FB07F106FB07F70CFB06F2AE
:102ED00012EB074241EB174105FB0CFC12EB0C42D5
:102EE00051EB1C414FF0000648BF7047921841EB70
:102EF0000101A3F101037047490050EAC12018BF46
:102F000004204A0D18BF40F0010040F2FF72B2EBFE
:102F1000515F08BF40F00200012808BF052070473C
:102F200040F2013200204FF0E04101F0D1B8000042
:102F3000024A0020110701F0CBB8000001FDFFFF9D
:102F400010B50446D1E9000100F002F8206010BD80
:102F5000F8B504460D466A4600F080F800987E30C9
:102F6000009000281EDC002213462046294600F06F
:102F70004FFB17D0002140F608004FF00000064636
:102F80002046294600F0FCF8044640F6080006EA10
:102F900000014FF0000034F0004004BF0220FDF7B4
:102FA000E1F929E00098FF2828DB002108464FF0CE
:102FB000000000F44006002213462046294600F097
:102FC00033FD8CBF002501250220FDF7CBF94FF022
:102FD000FF4446B1002D0CBF4FF400004FF48000B9
:102FE000B04218BF084C042108464FF00000002DE5
:102FF00004BF84F00040F8BD2046F8BD20462946B5
:10300000BDE8F84000F0BCB8FFFF7F7F10B5044674
:103010000A46D4E90003194600F04CF8C4E900015F
:1030200010BD30380A2801D20120704700207047B7
:1030300030B583B00446FDF790F905460020CDE990
:1030400000000246012321466846FDF7DFFB2846C3
:10305000FDF788F9DDE9000103B030BD10B5144675
:1030600000222260114A21F000439342A8BF10BD04
:1030700053EA000208BF10BDB3F5801FA8BF226845
:1030800007DA362201F024F86FF0350221F0004310
:103090002260DFF81CC06FF31E510CEB23531A445F
:1030A00041F0FF5141F00051226010BD0000F07F5F
:1030B00002FCFFFF2DE9F04106460C4640F2FF7589
:1030C000174635EA14502BD000221346304600F044
:1030D0009FFA25D03A463046214600F0F9FF0646D1
:1030E0000C4635EA145010D000221346304600F04A
:1030F0008FFA15D10220FDF735F9FFF719FF0A46BF
:10310000214662F31E01BDE8F0810220FDF72AF995
:10311000FFF706FF0A46214662F31E01BDE8F08173
:1031200030462146BDE8F08110B500290AD0087864
:10313000002807D005487844FDF7B0FF002801D0EB
:10314000002010BD0248784410BD00001A11000094
:103150001211000010B500290AD00878002807D005
:1031600005487844FDF79AFF002801D0002010BDE3
:103170000248784410BD00000A110000021100004E
:1031800021F0004201F00043A2F16052B2F5801F2D
:1031900028BFD2F17F6C0BD95FEA001C43EAC20260
:1031A00042EB507018BF704728BF20F001007047F5
:1031B000B2F5801FBCBF184670474FEA410C1CF5A2
:1031C000001F02D2084600F0D2BE70B500F0D8FB56
:1031D00000000089FFF7F6BF4FF00040A0F5800027
:1031E0007047000010B591EA030F48BF83F0004319
:1031F00000F15884841A71EB030C05D2121943EBC9
:103200000C03001B61EB0C014FEA1154A4EB135C9F
:10321000DFF81CE11EEA430F18BF9EEA445F00F08E
:10322000748021EA045123EA0E0343F48013DCF195
:10323000200E32D322FA0CFE10EB0E0023FA0CFE05
:1032400041EB0E01CCF1200E03FA0EFE10EB0E0046
:10325000CCF1200E51F10001B1F5801F32D201EB0B
:10326000045112FA0EF2BDE8104058BF7047401CDE
:1032700038BF5FEA420218BF7047002814BF20F031
:10328000010041F100014FEA410313F5001F38BF6F
:103290007047A1F1C04100F0C1BB012A43EB03021A
:1032A000ACF1200CDCF11F0E32BF4FF0000E23FA00
:1032B0000CF310EB030041EB0451B4EB115FD0D0E1
:1032C000A1EB045101F58011490801EB04515FEABB
:1032D00030000ED350F1000038BF12FA0EFE08D1B4
:1032E000BDE81040C9E7401C38BF5FEA4202CAD1BE
:1032F000C3E7BDE810404FEA410313F5001F38BF94
:103300007047A1F1C04100F089BB9EEA445F08D03C
:1033100011EA5E0FBDE8104004BF01F0004100203B
:103320007047BDE8104070B500F02AFB64FBBE3E5C
:103330000000E0FF02494FF0000000F097BE00BF20
:103340000000F87F491058BFC1F140415B1058BFE1
:10335000C3F140438B42EFF3008070472DE9C04139
:1033600030B4DFF8A4C23CEA111418BF3CEA1314CD
:1033700000F0ED801CEA111481EA030544EAD574DB
:1033800018BF1CEA131500F0C880A4EB050404F173
:103390007F7404F500344FF0004545EAC12145EA49
:1033A000C32341EA505143EA52534FEAC0204FEA47
:1033B000C222994208BF904200F09D804FEA1365F7
:1033C0000FF24416765D4FEA134506FB05F7C7F189
:1033D000807706FB07F74FEAD737A7FB03687642EB
:1033E000A7FB06CEC8F5803838BFA8F1010807FB57
:1033F00008E6A6FB028C4FF0000EE6FB03CEDCF1E4
:10340000000CCEF1004E38BFAEF1010EA6FB0C58F9
:103410004FF00007E6FB0E87A1FB08C6A0FB07CE16
:1034200016EB0E064FF0000545F10005E1FB0765C0
:1034300015F1E04E7EBFA4F580345FEA46066D418B
:1034400016F1800745F100054FEA172747EA05679F
:103450004FEA15254FEA0666A6F1DE46B6F1805F13
:1034600020D9384605EBC47124F0010C01EB0C1196
:10347000BCF1FE6F02D8F0BCBDE8008124425CBF05
:1034800001F5801E9EEAC47F02D4F0BCBDE8008135
:10349000244200F13980A1F1C041F0BCBDE80041F7
:1034A00000F0BCBA4FEAD02040EA41504FEAD121A7
:1034B0004FEAD22242EA43524FEAD323A7FB0286C5
:1034C00007FB036605FB02661EEA0E0F58BFA6EB5C
:1034D0000056B6EB00564FEA520E4EEAC37E18EB8A
:1034E0000E0E56EB530EBCD518EB02085E417F1C46
:1034F00055F10005B5E74FF480154FF000074FF088
:1035000000064FF00008ACE701F1C04101F00041B6
:103510004FF00000F0BCBDE800810CEA131511EA81
:103520000C1F00D00CE013EA0C1F00F026804FF0B7
:10353000000081EA030101F00041F0BCBDE8008118
:10354000F0BCBDE8004181EA030100F067BAF0BCBD
:10355000BDE8004170B500F013FA00BF097EFC3EE3
:1035600000F007B84FF0000081EA030101F00041CC
:10357000704781EA030100F051BAF0BCBDE8004198
:1035800022494FF000007047FFFDFBF9F7F5F4F218
:10359000F0EEEDEBE9E8E6E4E3E1E0DEDDDBDAD8EE
:1035A000D7D5D4D3D1D0CFCDCCCBCAC8C7C6C5C44C
:1035B000C2C1C0BFBEBDBCBBBAB9B8B7B6B5B4B363
:1035C000B2B1B0AFAEADACABAAA9A8A8A7A6A5A44E
:1035D000A3A3A2A1A09F9F9E9D9C9C9B9A99999812
:1035E0009797969595949393929191908F8F8E8EB5
:1035F0008D8C8C8B8B8A8989888887878685858442
:1036000084838382828181800000FF070000F87F2D
:1036100051EA030C17D41CF5801F58BFBCF5801F5E
:1036200000F10680994218BF704708BF904270476A
:1036300007D711F5801F58BF13F5801F19D4994281
:103640007047894270471CF5801F08D5BCF5801F64
:10365000F7D58B4218BF704708BF824270474FF4BE
:10366000001C1CEB410F38BF1CEB430F01D28B42F7
:10367000704770B500F084F9922449004FF0005172
:103680004FF08053FFF75EBE4FEA41034FEA5353BA
:10369000A3F58063D3F11E03C8BFD3F1210C0CDD69
:1036A0004FF0004242EAC12242EA505232FA03FC91
:1036B0008CEAE17CACEBE1707047102BC4BF0020BA
:1036C000704703F5787CBCF1FF3F04D06FF00042F7
:1036D00082EA2100704770B500F052F949922480C7
:1036E00000207047F2E710F0004248BF4042B0FAB5
:1036F00080F310FA03F10AD0C3F11D0303F58063D0
:1037000002EB03524FEA415002EBD12170474FF0D8
:1037100000007047B0FA80F310FA03F10AD0C3F149
:103720001D0303F580634FEA03524FEA415002EB59
:10373000D12170474FF000007047000051EA030CA0
:1037400017D41CF5801F58BFBCF5801F00F1068000
:10375000994218BF704708BF9042704707D711F5CC
:10376000801F58BF13F5801F19D4994270478942B2
:1037700070471CF5801F08D5BCF5801FF7D58B421C
:1037800018BF704708BF824270474FF4001C1CEB03
:10379000410F38BF1CEB430F01D28B42704770B50D
:1037A00000F0EEF8922449004FF080514FF00053A2
:1037B000FFF7C8BD51EA030C17D41CF5801F58BF92
:1037C000BCF5801F00F10680994218BF704708BF02
:1037D0009042704707D711F5801F58BF13F5801F1F
:1037E00019D499427047894270471CF5801F08D54B
:1037F000BCF5801FF7D58B4218BF704708BF8242C7
:1038000070474FF4001C1CEB410F38BF1CEB430FFB
:1038100001D28B42704770B500F0B2F89224490093
:103820004FF000514FF08053FFF78CBD70B5DFF8BB
:1038300048C11CEA111E1EBF1CEA13159EEA0C0F9C
:1038400095EA0C0F00F06F8081EA03044EEAD47E03
:10385000AE4421EA4C1123EA4C1341F4801143F4A5
:103860008013AEF17F7EA1FB024CA0FB03653619ED
:1038700055EB0C05A1FB034C4CF10003A0FB021C13
:1038800016EB0C06654153F10003094218BF46F0E0
:10389000010613F4007F0BD14FEA03314FEA0530E4
:1038A00041EA155140EA165034036FF003020AE072
:1038B0004FEAC3214FEAC52041EA555140EA56502C
:1038C000F4026FF0020202EB2E4201EB025585EA90
:1038D000CE710AD05FEA440C18BF24F0004450F1C6
:1038E000000041F1000120EAD47040F2FE7C624504
:1038F00000D270BDA84214BF4FF080444FF0404446
:10390000002E08BF0024BEF1806FA8BFA1F1C04106
:10391000BDE8704080F2828001F1C04101F00041B9
:103920004FF0000070470CEA13159EEA0C0F18BF09
:1039300095EA0C0F06D081EA030E4FF000000EF05E
:10394000004170BD00F01CF88900013E00F007B88E
:1039500000F009B84FEA430C5FEA5C5C08D081EAEA
:10396000030100F05BB84FEA410C5FEA5C5CF6D102
:1039700002494FF0000070470000FF070000F87F89
:103980000EF1020E2EF0030E5EF8046B364205D4E3
:10399000012A43EB030515F5001F12D8012841EB5E
:1039A000010C1CF5001F0CD80ED14FEAD17C0CEB9A
:1039B0004C0C0CF1020C15F5001F08BF4CEBD37C2E
:1039C00004E04FF0080C01E04FEAD37C0CEB4C050F
:1039D00026FA05F606F00706B6F1040C06D20EEB41
:1039E000860CBDE870404CF0010C6047DFE80CF03D
:1039F000090B02024FF00041A1F500214FF0000039
:103A000070BD19461046012851EB010418BFD4F5CA
:103A1000001484BF002001F0004170BD0808A0F52B
:103A200000114FEA3101704753EA010C17D41CF51D
:103A3000801F58BFBCF5801F00F106808B4218BF65
:103A4000704708BF8242704707D713F5801F58BFE1
:103A500011F5801F19D48B4270479B4270471CF5AB
:103A6000801F08D5BCF5801FF7D5994218BF704755
:103A700008BF904270474FF4001C1CEB430F38BF47
:103A80001CEB410F01D2994270470FB40CBC03BC30
:103A9000FFF7C1BE10B591EA030F48BF83F00043A2
:103AA0003FF5A8AB841A71EB030C07D28CF0004CE5
:103AB000121943EB0C03001B61EB0C014FEA11548C
:103AC000A4EB135CDFF8A4E11EEA430F18BF9EEAE3
:103AD000445F00F0B48021EA045123EA6E035242AD
:103AE000C3EB6E0338BF5B1EDCF1200E25D322FA38
:103AF0000CFE10EB0E0043FA0CFE41EB0E01CCF174
:103B0000200E03FA0EFE10EB0E00CCF1200E51F148
:103B1000000129D401EB045112FA0EF2BDE8104065
:103B200058BF7047401C1CBFB2F1004F70470028BF
:103B30000CBF491C20F00100704712EB020E43EB52
:103B4000030218BF4FF0010E4EEA4202ACF1200C06
:103B5000DCF11E0E56D943FA0CFE10EB0E00CCF130
:103B60001E0E51F1FF31D5D50EF1010E12FA0EFEE7
:103B7000404141EB010101EB445C5FEA5C5C10D920
:103B800001EB045110EBDE7038BFBEF1004FBDE811
:103B9000104018BF704700280CBF491C20F00100DE
:103BA000704734D24FEAD42C24F4006411F500118C
:103BB0001BD0B1FA81F20B3AA41AA41ED2F1200351
:103BC000914030FA03F31943904001EBCC7101EBC3
:103BD0000451002CBDE81040A8BF704701F1C0415E
:103BE00001F000414FF000007047B0FA80F310FA86
:103BF00003F102D1BDE810407047E41A173C4805B4
:103C0000C90AE2E701EB0451BDE8104070474910D2
:103C10004FEA300001EB0451BDE8104002E04FF0E4
:103C2000000170474A0008BF0042F8D0B2F5001FFB
:103C300028BF704701F000414FF0000070479EEA36
:103C4000445F07D011EA5E0FBDE8104004BF0021B9
:103C500000207047BDE8104070B5FFF791FE00BF2F
:103C600040DFF63E104683F0004170470000E0FF61
:103C700043004FEAD30C4FEA3C0C43401FBF4007C0
:103C80000CF1605113F0FE4F70471CF0006F03D130
:103C90000CF00041002070470CF0004343EA5070E4
:103CA00040EACC0010B500F01CF900BF0000009203
:103CB0004FEA0001FFF7B2BE4FF00041A1F500212D
:103CC0004FF000007047000090EA010F48BF81F0FC
:103CD000004100F15881421A3CBF801A89184FEA0E
:103CE000D052A2EBD1534FF07F4C1CEA410F18BFCA
:103CF0009CEA026F00F03B804FF0004C4CEA002041
:103D00004CEA012121FA03FC10EB0C0C1ED202F14B
:103D1000FF325FEA1C2040EBC25038BF70471CF0F6
:103D20007F0F4FEA400C18BFBCF17F4F38BF704780
:103D3000C3F12003994008BF20F00100BCF17F4F80
:103D400038BF7047A0F1C04000F011B94FEA3C0005
:103D5000000A40EBC25028BF1CF0FF0F4FEA400C96
:103D6000E6D018BFBCF17F4F38BF7047EAE79CEA46
:103D7000026F05D010EA5C0F08BF00F000407047EA
:103D800010B500F0AEF800BF64FBBE3E10B5FFF703
:103D90003FFC0CBF0120002010BD10B5FFF738FC20
:103DA00014BF0120002010BD10B5FFF7C7FC8CBF69
:103DB0000120002010BD10B5FFF7C0FC2CBF012072
:103DC000002010BD10B5FFF7F5FC94BF01200020C6
:103DD00010BD10B5FFF7EEFC34BF0120002010BD70
:103DE0004FF47F0C1CEAD0121EBF1CEAD11392EADA
:103DF0000C0F93EA0C0F00F0478090EA010F48BFC8
:103E000042F480724FF0004C4CEA00204CEA012151
:103E100002EB0302A0FB0113A2F50002002918BF68
:103E200043F001035B0028BF4FEA330342EB224219
:103E30005FEA132C4CEBC2502EBFBCEB436FB2F5C4
:103E40007C0F70474FEA036CBCF1004F08BF20F0B5
:103E50000100B2F57C0F38BF70470BD582F0FF022E
:103E600012F5803FC8BF704700F1C040D8BF00F0D6
:103E70000040704700F5000C5FEA4C0C48BF7047EB
:103E8000B0F1C04000F073B80CEAD11390EA010F12
:103E900048BF42F48072624538BF634504D280EA6D
:103EA000010000F00040704710B500F01AF800BFA4
:103EB0008900013E00F007B800F009B85FEA410C44
:103EC0005FEA1C6C08D080EA010000F050B85FEA9D
:103ED000400C5FEA1C6CF6D14FF00040A0F580006A
:103EE00070470EF1020E2EF0030E5EF8044B2442D2
:103EF00004D44FEA4102B2F17F4F11D84FEA400398
:103F0000B3F17F4F0CD80ED14FEAD07C0CEB4C0CA8
:103F10000CF1020CB2F17F4F08BF4CEBD17C04E0F6
:103F20004FF0080C01E04FEAD17C0CEB4C0324FA73
:103F300003F404F00704B4F1040C06D20EEB840C75
:103F4000BDE810404CF0010C6047DFE80CF00708BA
:103F500002024FF00040A0F5800010BD084642006C
:103F600018BFD2F1807288BF00F0004010BDFF2161
:103F700041EAD050C005704790EA010F48BF81F078
:103F800000413FF5A8AE421A04D882F00042A0EBEF
:103F9000020011444FEAD052A2EBD1534FF07F4CB4
:103FA0001CEA410F18BF9CEA026F4AD04FF0004C48
:103FB0004CEA00204CEA012121FA03FCB0EB0C0C86
:103FC0000FD412F0FE0F36D05FEA4C001DD5001260
:103FD00040EBC25038BF70471CF03F0F18BF70470E
:103FE0000BE05FEA1C20A2F1010240EBC25038BF97
:103FF00070471CF07F0F18BF7047C3F12003994032
:1040000014BF401E20F0010070474FEA12238008C1
:1040100008BF7047B0FA80FCA2EB0C02CCF1280C70
:1040200060FA0CF093EA122F04BF00EBC250704705
:104030004FEAC3707047130A5FEADC1008BF70478D
:10404000F6E79CEA026F04D010EA5C0F08BF00207C
:10405000704710B5FFF745FF40DFF63E81F00040A6
:1040600070474FF000007047FCF75ABA0CF00F038E
:10407000092B08BF082000F05F800A2B0BD0082B0B
:1040800018BF704708BF1CF0400F0AD04FF0000067
:104090004FF0000170471CF0400F18BF4FF0004078
:1040A00070471CF0100F08D000F07F4220F07043E2
:1040B00042EAD3014FEA4370704700F0604021F0BC
:1040C0007F4242EA000201F07F4040EA727070478E
:1040D0004FF0FF0C4CF4E06C1CEA11531CBF9CEA3F
:1040E000030C9445C2BFDA4201EB02517047002B2A
:1040F0000DD0BCF1000F0FD001F00041002AA4BF89
:1041000041F0E04141F07F614FF00000704701F065
:1041100000414FF00000704750EA01334FF09B0C14
:1041200018BF4CF0806C7FF405A97047FCF756BEB1
:10413000FDF708B8FDF796B91CF4801F11D01CF4E8
:10414000E02F03D06FEACC31490070474FF0405068
:10415000EFF3008222F0704242EA000282F300880C
:1041600070474FF00000704702400000000000A0C0
:104170000000000005400000000000C80000000032
:104180000C4000000000409C0000000019400000AE
:104190000020BCBE0000000034400000BFC91B8EE0
:1041A00000000004B5400000504BCFD06607E2CFBE
:1041B000010000006C4100003E8251AADFEEA734EE
:1041C00001000000D9420000DCB5A0E23A301F97A0
:1041D000FFFFFFFFB4450000FD25A0C8E9A3C14FC4
:1041E000FFFFFFFFFF3F0000000000800000000015
:1041F000FF3F000000000080000000000000000001
:10420000000000000102030406070809010202037E
:104210000405060708090A0B0C0D0E0F101000000C
:10422000804300080000002018000000280100085A
:1042300098430008180000204007000044010008CF
:10424000000000000000F07FFFFFFFFFFFFFEF7F97
:104250001C00000043000000F8FFFFFF0C000000FE
:104260000E0000000F0000002E00000010010000F2
:1042700043000000F8FFFFFF004040404040404046
:104280004040414141414140404040404040404029
:1042900040404040404040404005020202020202CD
:1042A000020202020202020202202020202020201C
:1042B0002020200202020202020290909090909030
:1042C00010101010101010101010101010101010EE
:1042D0001010101002020202020288888888888862
:1042E000080808080808080808080808080808084E
:1042F0000808080802020202400000000000000056
:1043000000000000000000000000000000000000AD
:10431000000000000000000000000000000000009D
:10432000000000000000000000000000000000008D
:10433000000000000000000000000000000000007D
:10434000000000000000000000000000000000006D
:10435000000000000000000000000000000000005D
:10436000000000000000000000000000000000004D
:10437000000000000000000000000000000000003D
:10438000CDCC4C3D9A99193F01000000100000006F
:084390000024F400000000000D
:04000005080000ED02
:00000001FF
