:020000040800F2
:10000000E006002089010008250D00081D0D0008EC
:10001000210D0008C5030008910D00080000000034
:100020000000000000000000000000002D0D00088E
:10003000C903000800000000290D0008310D000868
:10004000A3010008A3010008A3010008A301000800
:10005000A3010008A3010008A3010008A3010008F0
:10006000A3010008CD030008ED030008A301000868
:10007000A3010008A3010008A3010008A3010008D0
:10008000A3010008A3010008A3010008A3010008C0
:10009000A3010008A3010008A3010008A3010008B0
:1000A000A3010008A3010008A3010008A3010008A0
:1000B000A3010008A3010008A3010008A301000890
:1000C000A3010008A3010008A3010008A301000880
:1000D000A3010008390D0008A3010008A3010008CE
:1000E000A3010008A3010008A301000800F002F822
:1000F00000F03AF80AA090E8000C82448344AAF188
:100100000107DA4501D100F02FF8AFF2090EBAE885
:100110000F0013F0010F18BFFB1A43F0010318473B
:10012000040F0000240F0000103A24BF78C878C1E3
:10013000FAD8520724BF30C830C144BF04680C60ED
:10014000704700000023002400250026103A28BF35
:1001500078C1FBD8520728BF30C148BF0B60704739
:100160001FB51FBD10B510BD00F0F1F81146FFF727
:10017000F7FF00F00FFE00F00FF903B4FFF7F2FFF6
:1001800003BC00F017F90000094880470948004700
:10019000FEE7FEE7FEE7FEE7FEE7FEE7FEE7FEE737
:1001A000FEE7FEE704480549054A064B7047000094
:1001B000350D0008ED000008E0000020E0060020FA
:1001C000E0020020E0020020032A40F2308010F01C
:1001D000030C00F0158011F8013BBCF1020F6244E2
:1001E00098BF11F801CB00F8013B38BF11F8013B73
:1001F000A2F1040298BF00F801CB38BF00F8013B20
:1002000011F0030300F07180083AC0F0088051F843
:10021000043B083A51F804CBA0E80810F5E7121D9A
:100220005CBF51F8043B40F8043BAFF30080D207B9
:1002300024BF11F8013B11F801CB48BF11F8012B85
:1002400024BF00F8013B00F801CB48BF00F8012BA8
:1002500070474FF000020429C0F0128010F0030C28
:1002600000F01B80CCF1040CBCF1020F18BF00F8A9
:10027000012BA8BF20F8022BA1EB0C0100F00DB858
:100280005FEAC17C24BF00F8012B00F8012B48BFB6
:1002900000F8012B70474FF0000200B5134694465A
:1002A0009646203922BFA0E80C50A0E80C50B1F1CE
:1002B0002001BFF4F7AF090728BFA0E80C5048BFE2
:1002C0000CC05DF804EB890028BF40F8042B08BF80
:1002D000704748BF20F8022B11F0804F18BF00F87C
:1002E000012B704770477047704710B5203AC0F037
:1002F0000B80B1E81850A0E81850B1E81850A0E8F9
:100300001850203ABFF4F5AF5FEA027C24BFB1E891
:100310001850A0E8185044BF18C918C0BDE81040D4
:100320005FEA827C24BF51F8043B40F8043B08BFDD
:100330007047D20728BF31F8023B48BF11F8012BA4
:1003400028BF20F8023B48BF00F8012B70477546D4
:1003500000F02CF8AE4605006946534620F0070031
:10036000854618B020B5FFF71DFFBDE820404FF0CF
:1003700000064FF000074FF000084FF0000BAC46AE
:10038000ACE8C009ACE8C009ACE8C009ACE8C009F9
:1003900021F007018D46704710B50446AFF3008089
:1003A0002046BDE81040FFF7E8BE00000048704757
:1003B0001000002001491820ABBEFEE72600020015
:1003C00070470000FEE700007047000040F2144054
:1003D000C4F20100016841F00801016040F2D80058
:1003E000C2F20000016801310160704740F2144020
:1003F000C4F20100016841F01001016040F2D80030
:10040000C2F2000001680131016070472DE9F04F30
:1004100082B00E68002E00F0038141F20042C4F267
:100420000102042340F2004E904208BF03234FF61E
:10043000FF7CC4F2010E009300240123C1F2100CD2
:100440004FF0000A4FF0000949E000BF012704F017
:100450000C030F229A402BEA020207FA03F34FEA39
:100460009A051A4346F82520D1F804B040F20C450D
:100470005FEACB22DEF8082054BF22EA080242EAF3
:100480000802C4F20105CEF808202A685FEA8B232F
:1004900054BF22EA080242EA08022A605FEA8B336C
:1004A000DEF8042054BF22EA080242EA08025FEAAA
:1004B000CB33CEF80420DEF800204FF0010354BF08
:1004C00022EA080242EA0802CEF800200E680AF189
:1004D000010A36FA0AF204F1040400F0A18003FADA
:1004E0000AF816EA080FF1D04E68664512DC122EA3
:1004F00056D8DFE806F0350B454955555555555545
:10050000555555555555554D510000BFD1F80C90D6
:1005100046E000BF4FF6FF72C1F2210296420FDCA7
:100520000022C1F2110296421AD00022C1F2120238
:10053000964215D00022C1F22102964210D02FE03F
:100540000022C1F2220296420AD00022C1F23102F8
:10055000964205D00022C1F23202964220D100BF5D
:100560008A684AB1012A14BFC0F81480C0F810800C
:100570004FF0080914E000BF4FF0040910E000BF7D
:10058000CA6802F108090BE04FF0000908E000BF5B
:10059000CA6802F1040903E0CA6802F10C0900BF4D
:1005A00022460646BAF1080F24BF203A04363768BF
:1005B0000F25954027EA050509FA02F22A43326021
:1005C000CA79D2067FF582AF41F21803C4F2020362
:1005D0001A68AEF57E7642F001021A601A6802F0DF
:1005E00001020192019A2AF0030256F802B040F685
:1005F0000002C4F20102904210D040F60042C4F260
:10060000010290423FF422AF41F20002C4F2010223
:10061000009F904208BF022719E700BF002716E796
:1006200002B0BDE8F08F000040F2DC00C2F2000032
:100630000068704740F2000040F2DC01C2F20000A6
:10064000C2F2000100780A68104408607047000098
:1006500080B542F20000C4F20200016841F01001CE
:100660000160032000F07AF80F2000F005F800F098
:1006700027F8002080BD000070B540F20006C2F2ED
:10068000000640F208013278C2F200014FF47A739A
:100690000968B3FBF2F20446B1FBF2F1084600F040
:1006A00027FB0F2C4FF0010508D838B94FF0FF3069
:1006B00021460022002500F025F87460284670BD10
:1006C00082B041F21800C4F202000168022241F037
:1006D00001010160016801F0010101910199416886
:1006E00041F080514160406800F0805000900098D7
:1006F0000420C4F20100016862F31A61016002B0D3
:100700007047000010B54EF60C5CCEF2000CDCF821
:100710000030C3F3022E8EF00704042C28BF0424FB
:10072000BEF103034FF0FF3E0EFA04F438BF00237E
:10073000A14399400EFA03F39A43114300F00F02CC
:1007400000F160430901043A03F564436244002860
:1007500048BF02F10C03197010BD00004EF60C5199
:10076000CEF200010A684FF6FF031A4060F30A2236
:1007700042F0806040F0FD70086070472DE9F04362
:1007800081B0002800F0858042F20008C4F202081F
:100790000446D8F800000D4600F0070088420CD24D
:1007A000D8F8000020F007002843C8F80000D8F867
:1007B000000000F00700A8426BD1206841F2040954
:1007C0008107C4F2020917D5410705D5D9F80010F1
:1007D00041F4E061C9F80010010705D5D9F800100F
:1007E00041F46051C9F80010D9F80010A26821F056
:1007F000F0011143C9F80010C00741D1D8F800003A
:1008000000F00700A8420CD9D8F8000020F007003B
:100810002843C8F80000D8F8000000F00700A842FC
:1008200037D12068410707D5D9F80010E26821F4D4
:10083000E0611143C9F80010000708D5D9F800009D
:10084000216920F4605040EAC100C9F80000D9F8DD
:10085000002002F00C00082841F20020C0F27A00CB
:1008600050D141F21403C2F38341C0F60003595C36
:10087000D2033BD440F60010C0F23D00484341E0B3
:10088000606802280AD001282AD159F8041C89037B
:1008900008D4012001B0BDE8F08300BF59F8041C62
:1008A0008901F6D5D9F8001021F003010843C9F8F1
:1008B0000000FFF7B9FE064641F28837D9F800007C
:1008C000616800F00C00B0EB810F97D0FFF7ACFE31
:1008D000801BB842F2D9032001B0BDE8F08300BF0D
:1008E00059F8041C8907D4D5DCE700BFD9F80020EB
:1008F00041F21203C2F34042C0F600039A5C48433F
:10090000B0FBF2F0D9F8001041F20202C1F303117A
:10091000C0F60002515C40F2080220FA01F140F2F8
:100920000400C2F200000068C2F200021160FFF78A
:10093000A3FE002001B0BDE8F08300002DE9F041E6
:1009400082B0002868D00446007841F20006C00753
:10095000C4F2020625D0706800F00C0004281BD0F9
:10096000706800F00C00082802D17068C00313D42E
:100970006068002800F06881B0F5A02F00F07C814D
:10098000B0F5803F00F07C81306820F4803030602A
:10099000306820F4802076E13068800301D56068FB
:1009A000D0B32078800718D5706810F00C0F07D0EE
:1009B000706800F00C0008286ED17068C0036BD41A
:1009C0003068800702D52069012825D13068616927
:1009D00020F0F80040EAC1003060207800071FD402
:1009E0002078400732D4E56995B1706800F00C00BA
:1009F000082840F08F80012D0ED07068216A00F425
:100A000080328A4208D1616A00F47010884203D1B2
:100A1000002002B0BDE8F081012002B0BDE8F08105
:100A2000A069002862D00020C4F242200121C0F851
:100A30008014FFF7F9FD0546706A800700F18C808D
:100A4000FFF7F2FD401B0228F6D92AE1F06910F009
:100A5000805808D1F06940F08050F061F06900F0F2
:100A600080500090009847F20007C4F200073868F1
:100A7000C00529D4386840F480703860FFF7D4FD91
:100A8000054600BF3868C0051ED4FFF7CDFD401BEA
:100A90006428F7D905E100BF2069002840F2000072
:100AA000C4F2422000F0828001210160FFF7BCFD0A
:100AB000054600BF306880073FF588AFFFF7B4FDFB
:100AC000401B0228F6D9ECE0E068002800F08080A6
:100AD000052800F09780012800F09880306A20F007
:100AE00001003062306A20F0040092E00020C4F27D
:100AF00042200021C0F88014FFF796FD054600BF94
:100B0000706A80077FF56CAFFFF78EFD401B0228EF
:100B1000F6D9C6E00027C4F2422700203866FFF766
:100B200083FD022D05460BD13068800140F1BE8067
:100B3000FFF77AFD401B02284FF00300F4D968E765
:100B4000306880017FF564AFFFF76EFD401B02281F
:100B50004FF00300F4D95CE740F20800C2F2000055
:100B6000006844F6D351C1F26201A0FB0101480ABA
:100B7000019000BF00BF0198411E002801913FF481
:100B80002FAF00BF0198411E002801913FF428AF0C
:100B900000BF0198411E002801913FF421AF00BF22
:100BA0000198411E00280191E4D119E7002101605C
:100BB000FFF73AFD054600BF306880077FF50DAFAF
:100BC000FFF732FD401B02284FF00300F4D920E765
:100BD000306A20F001003062306A20F00400306298
:100BE000FFF722FD054641F2883700BF306A8007D3
:100BF00020D5FFF719FD401BB8424FF00300F5D98F
:100C000007E700BF306A40F004003062306A40F00D
:100C100001003062FFF708FD054641F2883700BF4A
:100C2000306A800706D4FFF7FFFC401BB842F7D9B3
:100C300037E000BFB8F1000F7FF4D5AEF06920F0C7
:100C40008050F061CFE600BF306820F48030306023
:100C5000306820F480203060FFF7E6FC054600BFD6
:100C6000306880037FF59DAEFFF7DEFC401B6428F3
:100C70004FF00300F4D9CCE6306840F480203060B7
:100C8000306840F480303060FFF7CEFC054600BF8E
:100C9000306880033FF585AEFFF7C6FC401B642833
:100CA000F6D9032002B0BDE8F08100BF206AB0F59C
:100CB000803F05D17168A26821F400311143716051
:100CC0007168626A21F47411114308437060012055
:100CD0003866FFF7A9FC0446306880013FF598AEFE
:100CE000FFF7A2FC001B02284FF00300F4D990E6A6
:100CF000411E0020B0EB116F1CBF012070474EF267
:100D00001002CEF2000251604EF62351CEF20001E5
:100D1000F0230B700721906011607047FEE7000020
:100D2000FEE70000FEE7000070470000704700008B
:100D3000FFF780BC7047000070B543F60400C4F2B2
:100D4000010001680A2917D140F27006C2F20006BC
:100D500006F1330420463221FFF77BFA357825B1BE
:100D6000711C20462A46FFF72FFA70190A2180F8D5
:100D700033100020307070BD40F27001C2F20001EB
:100D800000680A78531C0B701144487070BD000055
:100D9000FEE7000090B0FFF75BFC06AC201D2421AD
:100DA000FFF779FA0220069001200A9010200B909C
:100DB000002520460D95FFF7C1FD28B1EFF3108007
:100DC00072B600BFFEE700BF0F20CDE9010501A804
:100DD0000021CDE903550595FFF7D0FC20B1EFF3D5
:100DE000108072B6FEE700BF4FF0000841F218070E
:100DF000CDE90888C4F20207386841F2000540F0E6
:100E0000100038603868C4F2010500F0100001904D
:100E10000198386806AE40F0200038603868032436
:100E200000F02000019001983868314640F004003D
:100E30003860386800F0040001900198386840F08C
:100E400008003860386800F00800019001984FF4FD
:100E50006040069028460794FFF7D8FA05F58060B1
:100E60003146CDE90644FFF7D1FA40F6000549F6D0
:100E7000FF70C4F20105CDE9060428463146FFF7AC
:100E8000C5FA4FF6FF70CDE9060440F60044C4F2FF
:100E9000010420463146FFF7B9FA4FF6044140F20B
:100EA0000040CFF6FF71C4F20100425842F20C0339
:100EB00042F0E06242F40042425039684FF4C87296
:100EC00041F00D013960296829606968696021680D
:100ED000216061686160396841F004013960296806
:100EE00041F010612960796841F00201796040F2B7
:100EF0000041C4F20001C1F82880CA624A638A69CD
:100F000042F060028A610A6A42F001020A620A68DB
:100F100042F001020A60396844F204021143396068
:100F200069686960696841F090016960696841F4C5
:100F30008061696043F60C01C4F2010151F8042C90
:100F400042F0450241F8042C0A681A430A600A6814
:100F500042F020020A604EF20011CEF200014A680F
:100F600042F020024A602A6842F400422A604FF6AA
:100F70000C42CFF6FF72A35823F00803A3504FF69C
:100F80000843CFF6FF73C75867F47047C750076828
:100F900047F008070760EF5847F00807EF50AF58D1
:100FA00047F00807AF500F6847F400770F602F68CD
:100FB00047F400272F60A75827F01007A75087583D
:100FC00067F00F078750076847F010070760E85879
:100FD00040F01000E850A85840F01000A8500868F1
:100FE00040F480600860206840F011002060E068F4
:100FF00040F00100E060E06820F00200E06000BF27
:10100000FEE70000000000000000010203040607E4
:101010000809010202030405060708090A0B0C0D62
:101020000E0F1010481000080000002010000000F3
:10103000280100085810000810000020D006000009
:101040004401000800000000010000001000000042
:081050000024F4000000000080
:04000005080000ED02
:00000001FF
