:020000040800F2
:1000000020070020A101000859140008511400081D
:1000100055140008F90A0008A515000800000000A2
:100020000000000000000000000000006114000853
:10003000FD0A0008000000005D14000865140008B7
:10004000BB010008BB010008BB010008BB010008A0
:10005000BB010008BB010008BB010008BB01000890
:10006000BB010008010B0008210B0008BB010008C0
:10007000BB010008BB010008BB010008BB01000870
:10008000BB010008BB010008BB010008BB01000860
:10009000BB010008BB010008BB010008BB01000850
:1000A000BB010008BB010008BB010008BB01000840
:1000B0006D140008BB010008C9140008BB0100084A
:1000C000BB010008BB010008BB010008BB01000820
:1000D000BB01000845150008BB010008BB01000872
:1000E000BB010008BB010008BB01000800F002F8DA
:1000F00000F047F80AA090E8000C82448344AAF17B
:100100000107DA4501D100F03CF8AFF2090EBAE878
:100110000F0013F0010F18BFFB1A43F0010318473B
:100120004826000068260000103A24BF78C878C12D
:10013000FAD8520724BF30C830C144BF04680C60ED
:10014000704700000023002400250026103A28BF35
:1001500078C1FBD8520728BF30C148BF0B60704739
:10016000662902F0A382002070471FB500F04EFB05
:1001700004000020002101F06BFFE0601FBD10B5FE
:1001800010BD00F043FC1146FFF7EFFF01F00CFA41
:1001900000F061FC03B4FFF7F2FF03BC00F0A4FC25
:1001A0000948804709480047FEE7FEE7FEE7FEE70B
:1001B000FEE7FEE7FEE7FEE7FEE7FEE70448054947
:1001C000054A064B7047000069140008ED0000085E
:1001D0002001002020070020200300202003002011
:1001E0000FB41CB5074B06AA7B44694600900598DE
:1001F00000F0C1FA0020694600F0D0FA1CBC5DF89E
:1002000014FB0000B10500002DE9F0410E46044644
:10021000002020622046E168884730B3252805D0B9
:10022000D4E901219047206A401CF2E7E1682046AA
:1002300000278847050018D0A5F14100192802D8E9
:1002400020354FF400673246294620462760FFF7E5
:1002500087FF40B1012804D0F61D26F007060836B6
:10026000D8E7361DD6E72846DAE7206ABDE8F081F0
:10027000032A40F2308010F0030C00F0158011F8D2
:10028000013BBCF1020F624498BF11F801CB00F8AA
:10029000013B38BF11F8013BA2F1040298BF00F8FE
:1002A00001CB38BF00F8013B11F0030300F07B8263
:1002B000083AC0F0088051F8043B083A51F804CBE2
:1002C000A0E80810F5E7121D5CBF51F8043B40F8A8
:1002D000043BAFF30080D20724BF11F8013B11F8B3
:1002E00001CB48BF11F8012B24BF00F8013B00F8F7
:1002F00001CB48BF00F8012B70474FF0000200B55A
:10030000134694469646203922BFA0E80C50A0E838
:100310000C50B1F12001BFF4F7AF090728BFA0E8E6
:100320000C5048BF0CC05DF804EB890028BF40F8B2
:10033000042B08BF704748BF20F8022B11F0804FF4
:1003400018BF00F8012B70477047704770472DE9C0
:10035000FF4F0C461E464FF0FF378BB0D2E900012D
:10036000DDF860800A908A46C1F30A5505B93D461A
:10037000002108464FF00000BAF1000F00F44000E1
:1003800005DA00EB80004FF4400101EA50004FEA2B
:100390009059B9F1010F00DDB9460A9850EA4A00B8
:1003A0000ED044F61050A5F2FF3545432F14B8F196
:1003B000000F1ED07542291E1EDDC9F100021CE08F
:1003C000B8F1010F4FF0000001D0302103E0F243FB
:1003D00005E02154401CB042FBDB304600220021E6
:1003E00021540B99C1F80880C1E900200FB0BDE885
:1003F000F08FBD1B6D1CDEE74A4600DA694206A895
:1004000000F08EFA06AB93E8070003AB83E8070021
:1004100050460A9901F03FFA8DE80700A0F5005018
:100420001F3800900398002D0ADD42F21F014A4652
:100430000844002303A90390684601F0A9FC09E0E1
:10044000A0F500504A461F38002303A903906846D0
:1004500001F0B3FC8DE807000004000C03D04FF05E
:10046000FF30410800E01046B8F1000F03D0002231
:10047000009215461EE0751E05D400F0CBF930320F
:1004800062556D1EF9D5B3460122084302D0002201
:100490007F1C04E02078302801D100227F1E002A32
:1004A000099784D01DE0112D07DA00F0B3F930323E
:1004B00062556D1C50EA0102F5D1084302D0009844
:1004C000C8B10EE00021681E05E0235C625C635445
:1004D0002254401E491C8142F7DBAB46A81B401E3C
:1004E0000990002004F80B000B98099AC0F80880C6
:1004F000C0E9002B7AE711264FF0000857E72DE9F5
:10050000F04F88460446D21D22F0070191B0D1E990
:100510000001CDE90A0101F087FD02460B98C00FEA
:1005200001D02D2007E02068810701D52B2002E0B3
:10053000202101EAC000032A099001D0072A05DB27
:1005400003464146204600F0ABF90BE120788006D7
:1005500001D5E06900E00620B8F1650F814606D0BC
:10056000B8F1660F18D0B8F1670F70D131E00020F4
:10057000B9F1110F009001DB112301E009F1010332
:100580000AAA01A90CA8FFF7E2FEDDE90C7000261B
:1005900009F10105834647E001204B4600904FF0EA
:1005A00000470AAA01A90CA8FFF7D1FEDDE90DB0AA
:1005B0000C995D46002610B909F101000D18B9EB40
:1005C000050003D4C0F1FF3609F10105A5EB0900D0
:1005D0002BE0B9F1010F01DA4FF001090020B9F168
:1005E000110F0090484601DD112300E003460AAADE
:1005F00001A90CA8FFF7ABFEDDE90C704D46002603
:100600008346207800070AD4AB4500DA5D4601A88E
:10061000012D04DD411911F8011C302907D04F4587
:1006200002DA17F1040F04DA012082460FE06D1E92
:10063000EEE7002F02DCED1B3E4403E0781CA842ED
:1006400000DD7D1CB81B00F1010A4FF00047207847
:10065000000703D4AA4501DB4FF0FF3A0021B7F1B0
:10066000004F0DF143088DF8431024D002202B23B6
:10067000002F01DA7F422D230A21021EA0F1010082
:1006800000DC5FB197FBF1FC97FBF1F201FB1C7CF6
:1006900017460CF1300C08F801CDEEE7A8F1010087
:1006A00003702188090501D5452100E06521A0F1ED
:1006B000010800F8011C09980FA9A1EB0807FF1D0C
:1006C00000B10120411901EBEA70A1693844081A10
:1006D000401EA0612078C00602D42046AFF30080FF
:1006E000099828B1D4E901219047206A401C206272
:1006F0002078C00622D52046AFF300801EE0002EF1
:1007000004DBB34502DD01A8805D00E03020D4E9C0
:1007100001219047206A401C2062761CAAF101004A
:100720005FEA000A0AD100F071F8C0680168405C15
:10073000D4E901219047206A401C2062281EA5F1BF
:100740000105DCDC07E0D4E9012118F8010B904732
:10075000206A401C2062381EA7F10107F3DC204606
:10076000AFF30080032011B041E6000001694A1C8C
:1007700002610878704700B58FB0CDE901310021E2
:10078000059105497944CDE9031011466846FFF704
:100790003BFD0FB000BD0000E5FFFFFF0A6802F857
:1007A000010B0A60704710B5203AC0F00B80B1E829
:1007B0001850A0E81850B1E81850A0E81850203A96
:1007C000BFF4F5AF5FEA027C24BFB1E81850A0E89F
:1007D000185044BF18C918C0BDE810405FEA827CB9
:1007E00024BF51F8043B40F8043B08BF7047D207D0
:1007F00028BF31F8023B48BF11F8012B28BF20F871
:10080000023B48BF00F8012B7047000000487047CA
:100810003000002030B5B0F10A0271F100034FEA58
:10082000900E4EEA817EB0EB0E0061EB91014FEA33
:10083000101E4EEA017E10EB0E0041EB11114FEA43
:10084000102E4EEA016E10EB0E0041EB11214FEA23
:10085000104E4EEA014E10EB0E0041EB11414018D4
:1008600041F100014FEAD00040EA41704FEAD10166
:100870004FEA810444EA907410EB800544EB0104D4
:100880006D1944EB0404521BA3414FF0000348BF11
:100890000A3200D530BD401C41F1000130BD0000DE
:1008A0002DE9F0411F46044603260168072A01F49A
:1008B000006004DB08B116A505E016A503E008B149
:1008C00015A500E015A521F010002060A069C01E4C
:1008D000A0610FB1401EA0612046AFF300804FB170
:1008E000D4E9012138469047206A401C2062C01C90
:1008F000206206E0206AFAE7D4E9012115F8010B2D
:100900009047761EF8D22046AFF30080BDE8F08114
:100910004E414E006E616E00494E4600696E6600A3
:100920002DE9F047814616468AB0354878440DC80F
:100930008DE80D0032487844801C03AC0DC884E873
:100940000D0041F69B300844372190FBF1F290FBFB
:10095000F1F5A5F1800501FB12041B3C02D56442B0
:10096000012000E00020DFF898A080460027FA442C
:10097000AAF1BE0A0EE0E0070AD03246684607EB4D
:10098000470101230AEB810101F017FA8DE8070006
:1009900064107F1C002CEED1194F7F44AE3F19E04C
:1009A000E80715D007EB04100DF1180A90E80E00C7
:1009B0008AE80E00C068F04201D1981908903246CA
:1009C000012306A903A801F0F8F903AB83E80700A7
:1009D0006D10641C002DE3D14FF0010332466946CF
:1009E000B8F1000F03A802D001F0D2F901E001F044
:1009F000E4F9C9E90001C9F808200AB0BDE8F087A8
:100A0000FC1D000000487047100000207546FFF7ED
:100A1000F9FFAE4605006946534620F007008546BB
:100A200018B020B5FFF7CAFBBDE820404FF0000624
:100A30004FF000074FF000084FF0000BAC46ACE859
:100A4000C009ACE8C009ACE8C009ACE8C00921F0B5
:100A500007018D46704710B50446AFF3008020466D
:100A6000BDE81040FFF796BB4FF0013C50F8042B57
:100A700051F8043B9A4221D1A2EB0C03934313EAB1
:100A8000CC1317D150F8042B51F8043B9A4215D1DE
:100A9000A2EB0C03934313EACC130BD150F8042BB5
:100AA00051F8043B9A4209D1A2EB0C03934313EA99
:100AB000CC13DBD04FF00000704700BFD01A01BA52
:100AC000B1FA81F101F0180122FA01F0CB40DBB25A
:100AD000C0B2C01AC1F120012CFA01F3D11A91431E
:100AE00011EAC311E6D1704701491820ABBEFEE7F9
:100AF0002600020070470000FEE70000704700007B
:100B000040F21440C4F20100016841F008010160A4
:100B100040F27000C2F200008168013181607047CC
:100B200040F21440C4F20100016841F0100101607C
:100B300040F27000C2F200008168013181607047AC
:100B40002DE9F04F82B00E68002E00F0038141F2D3
:100B50000042C4F20102042340F2004E904208BF5A
:100B600003234FF6FF7CC4F2010E009300240123FF
:100B7000C1F2100C4FF0000A4FF0000949E000BF2D
:100B8000012704F00C030F229A402BEA020207FA15
:100B900003F34FEA9A051A4346F82520D1F804B02A
:100BA00040F20C455FEACB22DEF8082054BF22EA6F
:100BB000080242EA0802C4F20105CEF808202A68B9
:100BC0005FEA8B2354BF22EA080242EA08022A6045
:100BD0005FEA8B33DEF8042054BF22EA080242EABF
:100BE00008025FEACB33CEF80420DEF800204FF095
:100BF000010354BF22EA080242EA0802CEF80020AC
:100C00000E680AF1010A36FA0AF204F1040400F04F
:100C1000A18003FA0AF816EA080FF1D04E6866457B
:100C200012DC122E56D8DFE806F0350B4549555533
:100C300055555555555555555555554D510000BFB0
:100C4000D1F80C9046E000BF4FF6FF72C1F22102CE
:100C500096420FDC0022C1F2110296421AD0002205
:100C6000C1F21202964215D00022C1F22102964230
:100C700010D02FE00022C1F2220296420AD00022B8
:100C8000C1F23102964205D00022C1F232029642F0
:100C900020D100BF8A684AB1012A14BFC0F814806D
:100CA000C0F810804FF0080914E000BF4FF00409AD
:100CB00010E000BFCA6802F108090BE04FF000091C
:100CC00008E000BFCA6802F1040903E0CA6802F143
:100CD0000C0900BF22460646BAF1080F24BF203A8D
:100CE000043637680F25954027EA050509FA02F210
:100CF0002A433260CA79D2067FF582AF41F21803E7
:100D0000C4F202031A68AEF57E7642F001021A6060
:100D10001A6802F001020192019A2AF0030256F8C1
:100D200002B040F60002C4F20102904210D040F638
:100D30000042C4F2010290423FF422AF41F20002AD
:100D4000C4F20102009F904208BF022719E700BFCA
:100D5000002716E702B0BDE8F08F000040F21C103B
:100D6000C2F200000068704740F2000040F21C111F
:100D7000C2F20000C2F2000100780A681044086064
:100D80007047000080B542F20000C4F20200016822
:100D900041F010010160032000F07AF80F2000F00C
:100DA00005F800F027F8002080BD000070B540F283
:100DB0000006C2F2000640F208013278C2F20001D9
:100DC0004FF47A730968B3FBF2F20446B1FBF2F117
:100DD000084600F027FB0F2C4FF0010508D838B962
:100DE0004FF0FF3021460022002500F025F8746006
:100DF000284670BD82B041F21800C4F202000168BA
:100E0000022241F001010160016801F0010101913C
:100E10000199416841F080514160406800F0805084
:100E2000009000980420C4F20100016862F31A6186
:100E3000016002B07047000010B54EF60C5CCEF2B7
:100E4000000CDCF80030C3F3022E8EF00704042CF3
:100E500028BF0424BEF103034FF0FF3E0EFA04F452
:100E600038BF0023A14399400EFA03F39A4311437C
:100E700000F00F0200F160430901043A03F56443F6
:100E80006244002848BF02F10C03197010BD000035
:100E90004EF60C51CEF200010A684FF6FF031A40DD
:100EA00060F30A2242F0806040F0FD7008607047F5
:100EB0002DE9F04381B0002800F0858042F200085F
:100EC000C4F202080446D8F800000D4600F00700FE
:100ED00088420CD2D8F8000020F007002843C8F858
:100EE0000000D8F8000000F00700A8426BD120688D
:100EF00041F204098107C4F2020917D5410705D55B
:100F0000D9F8001041F4E061C9F80010010705D5D7
:100F1000D9F8001041F46051C9F80010D9F8001058
:100F2000A26821F0F0011143C9F80010C00741D1B7
:100F3000D8F8000000F00700A8420CD9D8F800004B
:100F400020F007002843C8F80000D8F8000000F09F
:100F50000700A84237D12068410707D5D9F800100B
:100F6000E26821F4E0611143C9F80010000708D5D8
:100F7000D9F80000216920F4605040EAC100C9F8A6
:100F80000000D9F8002002F00C00082841F20020EF
:100F9000C0F27A0050D142F25673C2F38341C0F6D8
:100FA0000003595CD2033BD440F60010C0F23D0070
:100FB000484341E0606802280AD001282AD159F844
:100FC000041C890308D4012001B0BDE8F08300BFF0
:100FD00059F8041C8901F6D5D9F8001021F0030155
:100FE0000843C9F80000FFF7B9FE064641F288370A
:100FF000D9F80000616800F00C00B0EB810F97D0C9
:10100000FFF7ACFE801BB842F2D9032001B0BDE867
:10101000F08300BF59F8041C8907D4D5DCE700BF72
:10102000D9F8002042F25473C2F34042C0F60003E4
:101030009A5C4843B0FBF2F0D9F8001042F24472D7
:10104000C1F30311C0F60002515C40F2080220FA1D
:1010500001F140F20400C2F200000068C2F2000296
:101060001160FFF7A3FE002001B0BDE8F08300008F
:101070002DE9F04182B0002868D00446007841F2A2
:101080000006C007C4F2020625D0706800F00C000C
:1010900004281BD0706800F00C00082802D170688A
:1010A000C00313D46068002800F06881B0F5A02F59
:1010B00000F07C81B0F5803F00F07C81306820F446
:1010C00080303060306820F4802076E13068800322
:1010D00001D56068D0B32078800718D5706810F00B
:1010E0000C0F07D0706800F00C0008286ED17068F3
:1010F000C0036BD43068800702D52069012825D150
:101100003068616920F0F80040EAC1003060207862
:1011100000071FD42078400732D4E56995B1706884
:1011200000F00C00082840F08F80012D0ED0706870
:10113000216A00F480328A4208D1616A00F470109A
:10114000884203D1002002B0BDE8F081012002B046
:10115000BDE8F081A069002862D00020C4F24220DE
:101160000121C0F88014FFF7F9FD0546706A800779
:1011700000F18C80FFF7F2FD401B0228F6D92AE12E
:10118000F06910F0805808D1F06940F08050F061AB
:10119000F06900F080500090009847F20007C4F218
:1011A00000073868C00529D4386840F4807038607A
:1011B000FFF7D4FD054600BF3868C0051ED4FFF711
:1011C000CDFD401B6428F7D905E100BF2069002848
:1011D00040F20000C4F2422000F082800121016050
:1011E000FFF7BCFD054600BF306880073FF588AFBC
:1011F000FFF7B4FD401B0228F6D9ECE0E0680028B8
:1012000000F08080052800F09780012800F0988089
:10121000306A20F001003062306A20F0040092E071
:101220000020C4F242200021C0F88014FFF796FD90
:10123000054600BF706A80077FF56CAFFFF78EFD33
:10124000401B0228F6D9C6E00027C4F2422700203E
:101250003866FFF783FD022D05460BD1306880010B
:1012600040F1BE80FFF77AFD401B02284FF00300DB
:10127000F4D968E7306880017FF564AFFFF76EFD51
:10128000401B02284FF00300F4D95CE740F208004D
:10129000C2F20000006844F6D351C1F26201A0FB23
:1012A0000101480A019000BF00BF0198411E0028BB
:1012B00001913FF42FAF00BF0198411E002801911A
:1012C0003FF428AF00BF0198411E002801913FF470
:1012D00021AF00BF0198411E00280191E4D119E718
:1012E00000210160FFF73AFD054600BF3068800726
:1012F0007FF50DAFFFF732FD401B02284FF00300D2
:10130000F4D920E7306A20F001003062306A20F022
:1013100004003062FFF722FD054641F2883700BF26
:10132000306A800720D5FFF719FD401BB8424FF007
:101330000300F5D907E700BF306A40F004003062CF
:10134000306A40F001003062FFF708FD054641F2C7
:10135000883700BF306A800706D4FFF7FFFC401BC8
:10136000B842F7D937E000BFB8F1000F7FF4D5AE2F
:10137000F06920F08050F061CFE600BF306820F4C3
:1013800080303060306820F480203060FFF7E6FC69
:10139000054600BF306880037FF59DAEFFF7DEFC99
:1013A000401B64284FF00300F4D9CCE6306840F4C9
:1013B00080203060306840F480303060FFF7CEFC31
:1013C000054600BF306880033FF585AEFFF7C6FCD9
:1013D000401B6428F6D9032002B0BDE8F08100BFAD
:1013E000206AB0F5803F05D17168A26821F4003110
:1013F000114371607168626A21F4741111430843EA
:10140000706001203866FFF7A9FC0446306880014F
:101410003FF598AEFFF7A2FC001B02284FF0030037
:10142000F4D990E6411E0020B0EB116F1CBF0120E3
:1014300070474EF21002CEF2000251604EF6235178
:10144000CEF20001F0230B7007219060116070470D
:10145000FEE70000FEE70000FEE700007047000026
:1014600070470000FFF780BC7047000010B51020E7
:10147000C4F20000016840F2700421F00101016033
:10148000C2F200046068411C32286160B8BF10BD20
:10149000A0680021E060C4E9011100F07BFF002397
:1014A000C4F24E03002200F08DFF43F2343243F2C7
:1014B0003333C3F23332C4F2580300F011FE00F0AC
:1014C000DDFD206110BD0000B0B540F61000C4F293
:1014D0000000016840F2700521F001010160C2F2D4
:1014E0000005286901F06CF805F1140402460B466A
:1014F00010A12046FEF774FE287D002808BFB0BD6D
:1015000043F60001C4F2010104E000BF486014F892
:10151000010F68B10A685206F8D40A6852065CBF27
:101520000A685FEA4262F1D40A685206F2D5EDE732
:10153000B0BD00BF56656C6F636974793A2025664B
:101540000A00000070B543F60400C4F2010001680F
:101550000A291BD140F2E804C2F2000420463221DD
:10156000FEF7CBFE40F27006C2F20006357845B1B8
:1015700040F2E80006F14601C2F200002A46FEF7FA
:1015800077FE0A2060550020307070BD40F2700177
:10159000C2F2000100680A78531C0B70114481F8F4
:1015A000460070BDFEE7000090B0FFF7EBFB06AC15
:1015B000201D2421FEF7A1FE0220069001200A90A2
:1015C00010200B90002520460D95FFF751FD28B106
:1015D000EFF3108072B600BFFEE700BF0F20CDE929
:1015E000010501A80021CDE903550595FFF760FC31
:1015F00020B1EFF3108072B6FEE700BF4FF0000895
:1016000041F21807CDE90888C4F20207386841F2B0
:10161000000540F0100038603868C4F2010500F0A1
:10162000100001900198386806AE40F02000386044
:101630003868032400F02000019001983868314692
:1016400040F004003860386800F004000190019810
:10165000386840F008003860386800F008000190F1
:1016600001984FF46040069028460794FFF768FA07
:1016700005F580603146CDE90644FFF761FA40F692
:10168000000549F6FF70C4F20105CDE906042846BD
:101690003146FFF755FA4FF6FF70CDE9060440F6E4
:1016A0000044C4F2010420463146FFF749FA4FF6E0
:1016B000044140F20040CFF6FF71C4F201004258ED
:1016C0000C2342F0E06242F4004242503968C4F216
:1016D000000341F00D01396029684FF0010C2960C9
:1016E00069684FF4C872696021682160616861604F
:1016F000796841F0010179600721D96140F2E73151
:101700001962C3F808C04FF080410E6846F0010628
:101710000E60196841F0010119604EF20011CEF21D
:1017200000010E6846F080560E603E6846F00406E2
:101730003E602E6846F010662E607E6846F0020617
:101740007E6040F21846C4F20006C6F8108072614E
:10175000F261326842F060023260B26842F0010227
:10176000B260D3F8F42342F00102C3F8F4237A689C
:1017700042F20F7342F004027A6040F21F32C6F860
:10178000102440F62C02C4F200021360C6F8FCC319
:10179000D6F8E82344F2040342F00102C6F8E82335
:1017A000D6F8F42342F00102C6F8F4230A6842F0A6
:1017B00080420A603A681A433A606A6842F20C074B
:1017C0006A606A6842F090026A606A6842F4806205
:1017D0006A6043F60C02C4F2010252F8043C43F082
:1017E000450342F8043C13683B431360136843F01D
:1017F000200313604A6842F020024A602A6842F4DB
:1018000000422A604FF60C42CFF6FF72A35823F035
:101810000803A3504FF60843CFF6FF73C75867F489
:101820007047C750076847F008070760EF5847F050
:101830000807EF50AF5847F00807AF500F6847F45C
:1018400000770F602F6847F400272F60A75827F014
:101850001007A750875867F00F078750076847F0B1
:1018600010070760E85840F01000E850A85840F012
:101870001000A850086840F480600860206840F0BC
:1018800011002060E06840F00100E060E06820F0B6
:101890000200E060FEE75FEA400C08BF91F0000F35
:1018A0004FEA8C234FEAC12243EA51514FEA1C50C0
:1018B00018BF00F5F0404FEA300018BF41F000417A
:1018C0005FEA6C5C00F02980BCF1FF3F08BF40F08C
:1018D00080407047130C06BF12044FF0100C4FF0FD
:1018E000000C130E04BF12020CF1080C130F04BFFE
:1018F00012010CF1040C930F04BF92000CF1020CC6
:10190000D30F04BF52000CF1010C11464FF000023E
:10191000A0F11F00A0EB0C00704711F0004F08BFB2
:10192000704731F000413FF4D5AF0B0C06BF0904FE
:101930004FF0100C4FF0000C0B0E04BF09020CF11D
:10194000080C0B0F04BF09010CF1040C8B0F04BF32
:1019500089000CF1020CCB0F04BF49000CF1010C03
:10196000CCF1200322FA03F341EA030102FA0CF25C
:10197000A0EB0C0000F101007047000023F07F474E
:1019800020F07F4C80EA030000F00040ACEB07033E
:1019900003F57C5303F1FF032DE9804909B44FEAB5
:1019A000144324EA03484FEA154B25EA0B4E0FF285
:1019B000042606EB13273E7803FB0667C7F50007EE
:1019C00007FB06F64FEAD64606F102064FEA543701
:1019D00007FB066CCCF1005C4FEA1C472CEA074C75
:1019E0000CFB06F507FB06F404EB15464FEA9616CA
:1019F00049085FEA320234BF00204FF000404FEA4E
:101A0000D13706FB07FC4FEA1C4C0CFB0BF7D21B33
:101A100003FB0CF761EB07010CFB0EF7B0EB074083
:101A200072EB17420CFB08F734BFA2EB0742B2EB94
:101A3000074261EB17414FEA0C444FEA910706FB5E
:101A400007FC4FEA1C4C0CFB0BF7B0EBC74072EBEA
:101A5000573203FB0CF734BFA2EBC742B2EBC742CD
:101A600061EB57310CFB0EF7B0EBC70072EB57720E
:101A70000CFB08F734BFA2EBC702B2EBC70261EB65
:101A800057714FEA816141EA92114FEA826242EA5C
:101A900090124FEA806004EBCC04039F4FEAD137E9
:101AA00006FB07FC4FEA1C4C0CFB0BF7D21B03FB9D
:101AB0000CF761EB07010CFB0EF7B0EB074072EB84
:101AC00017420CFB08F734BFA2EB0742B2EB074208
:101AD00061EB17414FEA8C5504EB9C244FEA9107C8
:101AE00006FB07FC4FEA1C4C0CFB0BF7B0EBC740A6
:101AF00072EB573203FB0CF734BFA2EBC742B2EBD9
:101B0000C74261EB57310CFB0EF7B0EBC70072EB2D
:101B100057720CFB08F734BFA2EBC702B2EBC70247
:101B200061EB57714FEA816141EA92114FEA82629B
:101B300042EA90124FEA806015EB4C2544F1000414
:101B40004FEAD13706FB07FC4FEA1C4C0CFB0BF7A6
:101B5000D21B03FB0CF761EB07010CFB0EF7B0EB9C
:101B6000074072EB17420CFB08F734BFA2EB0742A9
:101B7000B2EB074261EB17414FEA813141EA9241F2
:101B80004FEA823242EA90424FEA80304FEA0C76C6
:101B900015EB1C1544F1000448EA03434EEA0B48D8
:101BA0004FF0000EB2EB080C71EB030724BF624646
:101BB00039464EEB0E0E4FF0000B001852414941D2
:101BC0004BEB0B0BB2EB080C71EB03077BF1000B3B
:101BD00024BF624639464EEB0E0E4FF0000B001844
:101BE000524149414BEB0B0BB2EB080C71EB030775
:101BF0007BF1000B24BF624639464EEB0E0E51EAD4
:101C0000020718BF46F0010616EB0E7655F10002EA
:101C100054F1000103D5BDE88901BDE80088BDE8A5
:101C20008901BDE80048B619524141EB0101A3F119
:101C30000103704780807F7E7D7C7B7A7978777620
:101C400076757473727171706F6E6E6D6C6C6B6A99
:101C50006A69686867666665646463636261616037
:101C6000605F5F5E5E5D5D5C5C5B5B5A5A595958B4
:101C7000585757565655555554545353525252511E
:101C8000515050504F4F4F4E4E4D4D4D4C4C4C4B74
:101C90004B4B4A4A4A4949494848484747474746BB
:101CA00046464545454444444443434343424242F7
:101CB000424141419C46002B30D477002BD04FEA63
:101CC00037071CB503B44FF010004FF01001BAF104
:101CD000000F06D0BCF1000FDCBF40F0080040F060
:101CE00008014FF000000FBCBDE810400BF1010BE4
:101CF000BBF1010F08BF5FEA170722BF12F1010213
:101D000011F101014FF0004143F1000300F00040E8
:101D100043EA00007047F9D35708D0E746EA064681
:101D20004FEA164613F1400F1FDD13F1200FDFBFFE
:101D300016430A46002120335B42BED0C3F1200780
:101D400046EA06464FEA164602FA07F746EA07064B
:101D500022FA03F2C3F1200701FA07F742EA070269
:101D600021FA03F14FF00003A7E746EA020646EA2C
:101D700006464FEA164646EA0106BCBF46EA064654
:101D8000360C4FF000034FF000024FF0000194E7D3
:101D90002DE9804C70B49A46934691E8380007C804
:101DA00031EA400C48BF34EA430C03D5FFF7E6FDA7
:101DB000FFF780FFF0BCBDE8008C2DE9804C70B4CB
:101DC0009A46934691E8380007C810F0804F08BF44
:101DD00013F0804F03D100F005F8FFF76BFFF0BC64
:101DE000BDE8008C20F07F4723F07F4C80EA0300A1
:101DF00000F0004007EB0C03A3F57C53A3F1FE03B6
:101E000092F0000F00F0B38095F0000F00F07780A3
:101E10002DE901494FEA114021EA00484FEA1446F2
:101E200024EA064700FB06FC08FB06F607FB08F859
:101E300018EB06484CEB164C00FB07F718EB07486D
:101E40004CEB17404FEA124B22EA0B4E4FEA154675
:101E500025EA06470BFB06FC0EFB06F607FB0EFE0B
:101E60001EEB064E4CEB164C0BFB07F71EEB074E1A
:101E70004CEB174B18EB0B0840F1000018EB0E0B66
:101E800058EB000840F100008F1A4FF000014FF0AE
:101E900000063CBFC943661B14BFB5EB040C002110
:101EA0003CBFC943F61B4FEA174427EA04454FEAF3
:101EB0001C472CEA074C04FB076205FB07F70CFBE9
:101EC00005F616EB074642EB174204FB0CFC16EB3B
:101ED0000C4642EB1C421BEB060658EB020241414A
:101EE0004EEA8E0E46EA9E0601D5BDE80189B61976
:101EF000524141EB0101A3F10103BDE801894FEA21
:101F0000144524EA05464FEA114721EA074C05FB30
:101F100007F406FB07F70CFB06F111EB074144EB56
:101F2000174405FB0CFC11EB0C4144EB1C444FEA3D
:101F3000124722EA074C05FB07F206FB07F70CFBEA
:101F400006F616EB074642EB174205FB0CFC16EBB8
:101F50000C4642EB1C456A1854F1000148BF70471B
:101F6000B619524141EB0101A3F10103704795F00D
:101F7000000F37D04FEA114221EA02464FEA1447D8
:101F800024EA074C02FB07F106FB07F70CFB06F4FB
:101F900014EB074441EB174102FB0CFC14EB0C441F
:101FA00041EB1C414FEA154725EA074C02FB07F5B8
:101FB00006FB07F70CFB06F616EB074645EB174545
:101FC00002FB0CFC16EB0C4645EB1C42121951F1BE
:101FD000000148BF7047B619524141EB0101A3F11E
:101FE000010370474FEA144524EA05464FEA1147BA
:101FF00021EA074C05FB07F106FB07F70CFB06F28D
:1020000012EB074241EB174105FB0CFC12EB0C42B3
:1020100051EB1C414FF0000648BF7047921841EB4E
:102020000101A3F101037047490050EAC12018BF24
:1020300004204A0D18BF40F0010040F2FF72B2EBDD
:10204000515F08BF40F00200012808BF052070471B
:1020500010B500290AD00878002807D00548784430
:10206000FEF702FD002801D0002010BD0248784490
:1020700010BD00002A0700002207000021F00042E6
:1020800001F00043A2F16052B2F5801F28BFD2F1E7
:102090007F6C0BD95FEA001C43EAC20242EB50702E
:1020A00018BF704728BF20F001007047B2F5801FAD
:1020B000BCBF184670474FEA410C1CF5001F02D206
:1020C000084600F0EEBA70B500F026FA000000896C
:1020D000FFF7F6BF4FF00040A0F58000704700000A
:1020E0002DE9C04130B4DFF8A4C23CEA111418BF96
:1020F0003CEA131400F0ED801CEA111481EA030598
:1021000044EAD57418BF1CEA131500F0C880A4EB8C
:10211000050404F17F7404F500344FF0004545EAEE
:10212000C12145EAC32341EA505143EA52534FEAE1
:10213000C0204FEAC222994208BF904200F09D8021
:102140004FEA13650FF24416765D4FEA134506FB1E
:1021500005F7C7F1807706FB07F74FEAD737A7FBEC
:1021600003687642A7FB06CEC8F5803838BFA8F1D1
:10217000010807FB08E6A6FB028C4FF0000EE6FB09
:1021800003CEDCF1000CCEF1004E38BFAEF1010EF3
:10219000A6FB0C584FF00007E6FB0E87A1FB08C614
:1021A000A0FB07CE16EB0E064FF0000545F100052B
:1021B000E1FB076515F1E04E7EBFA4F580345FEAD0
:1021C00046066D4116F1800745F100054FEA1727D5
:1021D00047EA05674FEA15254FEA0666A6F1DE468F
:1021E000B6F1805F20D9384605EBC47124F0010CAC
:1021F00001EB0C11BCF1FE6F02D8F0BCBDE8008110
:1022000024425CBF01F5801E9EEAC47F02D4F0BC6C
:10221000BDE80081244200F13980A1F1C041F0BC49
:10222000BDE8004100F0C6B94FEAD02040EA415075
:102230004FEAD1214FEAD22242EA43524FEAD32356
:10224000A7FB028607FB036605FB02661EEA0E0F6C
:1022500058BFA6EB0056B6EB00564FEA520E4EEAB8
:10226000C37E18EB0E0E56EB530EBCD518EB0208CE
:102270005E417F1C55F10005B5E74FF480154FF026
:1022800000074FF000064FF00008ACE701F1C04135
:1022900001F000414FF00000F0BCBDE800810CEA05
:1022A000131511EA0C1F00D00CE013EA0C1F00F00C
:1022B00026804FF0000081EA030101F00041F0BCEC
:1022C000BDE80081F0BCBDE8004181EA030100F0F7
:1022D00071B9F0BCBDE8004170B500F01DF900BF58
:1022E000097EFC3E00F007B84FF0000081EA0301D0
:1022F00001F00041704781EA030100F05BB9F0BCD6
:10230000BDE8004122494FF000007047FFFDFBF996
:10231000F7F5F4F2F0EEEDEBE9E8E6E4E3E1E0DE18
:10232000DDDBDAD8D7D5D4D3D1D0CFCDCCCBCAC88A
:10233000C7C6C5C4C2C1C0BFBEBDBCBBBAB9B8B7B1
:10234000B6B5B4B3B2B1B0AFAEADACABAAA9A8A8A4
:10235000A7A6A5A4A3A3A2A1A09F9F9E9D9C9C9B72
:102360009A9999989797969595949393929191901D
:102370008F8F8E8E8D8C8C8B8B8A898988888787AE
:102380008685858484838382828181800000FF0723
:102390000000F87F10F0004248BF4042B0FA80F3DE
:1023A00010FA03F10AD0C3F11D0303F5806302EBB9
:1023B00003524FEA415002EBD12170474FF0000029
:1023C0007047000070B5DFF848C11CEA111E1EBF3F
:1023D0001CEA13159EEA0C0F95EA0C0F00F06F80B3
:1023E00081EA03044EEAD47EAE4421EA4C1123EA8A
:1023F0004C1341F4801143F48013AEF17F7EA1FBB6
:10240000024CA0FB0365361955EB0C05A1FB034CF0
:102410004CF10003A0FB021C16EB0C06654153F1C6
:102420000003094218BF46F0010613F4007F0BD1E8
:102430004FEA03314FEA053041EA155140EA1650A0
:1024400034036FF003020AE04FEAC3214FEAC520CC
:1024500041EA555140EA5650F4026FF0020202EB95
:102460002E4201EB025585EACE710AD05FEA440C98
:1024700018BF24F0004450F1000041F1000120EAAF
:10248000D47040F2FE7C624500D270BDA84214BFF9
:102490004FF080444FF04044002E08BF0024BEF1AE
:1024A000806FA8BFA1F1C041BDE8704080F282807A
:1024B00001F1C04101F000414FF0000070470CEA0B
:1024C00013159EEA0C0F18BF95EA0C0F06D081EA8F
:1024D000030E4FF000000EF0004170BD00F01CF83C
:1024E0008900013E00F007B800F009B84FEA430C3C
:1024F0005FEA5C5C08D081EA030100F05BB84FEA58
:10250000410C5FEA5C5CF6D102494FF00000704775
:102510000000FF070000F87F0EF1020E2EF0030E00
:102520005EF8046B364205D4012A43EB030515F52A
:10253000001F12D8012841EB010C1CF5001F0CD81C
:102540000ED14FEAD17C0CEB4C0C0CF1020C15F5C2
:10255000001F08BF4CEBD37C04E04FF0080C01E0F7
:102560004FEAD37C0CEB4C0526FA05F606F007067D
:10257000B6F1040C06D20EEB860CBDE870404CF0B0
:10258000010C6047DFE80CF0090B02024FF000413C
:10259000A1F500214FF0000070BD1946104601283A
:1025A00051EB010418BFD4F5001484BF002001F0E2
:1025B000004170BD0808A0F500114FEA31017047D5
:1025C00043004FEAD30C4FEA3C0C43401FBF400787
:1025D0000CF1605113F0FE4F70471CF0006F03D1F7
:1025E0000CF00041002070470CF0004343EA5070AB
:1025F00040EACC0010B500F00EF800BF00000092D9
:102600004FEA0001FFF7D6BF4FF00041A1F50021CE
:102610004FF0000070470EF1020E2EF0030E5EF830
:10262000044B244204D44FEA4102B2F17F4F11D847
:102630004FEA4003B3F17F4F0CD80ED14FEAD07C64
:102640000CEB4C0C0CF1020CB2F17F4F08BF4CEBC1
:10265000D17C04E04FF0080C01E04FEAD17C0CEB98
:102660004C0324FA03F404F00704B4F1040C06D27A
:102670000EEB840CBDE810404CF0010C6047DFE825
:102680000CF0070802024FF00040A0F5800010BDDA
:102690000846420018BFD2F1807288BF00F00040A7
:1026A00010BDFF2141EAD050C0057047FDF727BF9C
:1026B00002400000000000A00000000005400000F3
:1026C000000000C8000000000C4000000000409C1A
:1026D00000000000194000000020BCBE0000000007
:1026E00034400000BFC91B8E00000004B54000004C
:1026F000504BCFD06607E2CF010000006C410000D4
:102700003E8251AADFEEA73401000000D94200004A
:10271000DCB5A0E23A301F97FFFFFFFFB445000091
:10272000FD25A0C8E9A3C14FFFFFFFFFFF3F000049
:102730000000008000000000FF3F0000000000805B
:10274000000000000000000000000000010203047F
:1027500006070809010202030405060708090A0B17
:102760000C0D0E0F10100000A8270008000000201C
:102770001000000028010008B82700081000002001
:1027800010070000440100081C0000004300000086
:10279000F8FFFFFF0C0000000E0000000F0000001B
:1027A0002E000000000000000100000010000000EA
:0827B0000024F4000000000009
:04000005080000ED02
:00000001FF
